{
  "contractName": "MissingDiaries",
  "abi": [
    {
      "inputs": [],
      "stateMutability": "nonpayable",
      "type": "constructor"
    },
    {
      "anonymous": false,
      "inputs": [
        {
          "indexed": false,
          "internalType": "uint256",
          "name": "id",
          "type": "uint256"
        },
        {
          "indexed": false,
          "internalType": "string",
          "name": "name",
          "type": "string"
        },
        {
          "indexed": false,
          "internalType": "uint256",
          "name": "age",
          "type": "uint256"
        },
        {
          "indexed": false,
          "internalType": "uint256",
          "name": "height",
          "type": "uint256"
        },
        {
          "indexed": false,
          "internalType": "enum MissingDiaries.Status",
          "name": "status",
          "type": "uint8"
        },
        {
          "indexed": false,
          "internalType": "string",
          "name": "description",
          "type": "string"
        },
        {
          "indexed": false,
          "internalType": "string",
          "name": "division",
          "type": "string"
        },
        {
          "indexed": false,
          "internalType": "string",
          "name": "relative",
          "type": "string"
        }
      ],
      "name": "missingPersonAdded",
      "type": "event"
    },
    {
      "inputs": [
        {
          "internalType": "uint256",
          "name": "",
          "type": "uint256"
        }
      ],
      "name": "missingPeople",
      "outputs": [
        {
          "internalType": "uint256",
          "name": "id",
          "type": "uint256"
        },
        {
          "internalType": "string",
          "name": "name",
          "type": "string"
        },
        {
          "internalType": "uint256",
          "name": "age",
          "type": "uint256"
        },
        {
          "internalType": "uint256",
          "name": "height",
          "type": "uint256"
        },
        {
          "internalType": "enum MissingDiaries.Status",
          "name": "status",
          "type": "uint8"
        },
        {
          "internalType": "string",
          "name": "description",
          "type": "string"
        },
        {
          "internalType": "string",
          "name": "division",
          "type": "string"
        },
        {
          "internalType": "string",
          "name": "relative",
          "type": "string"
        }
      ],
      "stateMutability": "view",
      "type": "function",
      "constant": true
    },
    {
      "inputs": [],
      "name": "missingPeopleCount",
      "outputs": [
        {
          "internalType": "uint256",
          "name": "",
          "type": "uint256"
        }
      ],
      "stateMutability": "view",
      "type": "function",
      "constant": true
    },
    {
      "inputs": [
        {
          "internalType": "string",
          "name": "_name",
          "type": "string"
        },
        {
          "internalType": "uint256",
          "name": "_age",
          "type": "uint256"
        },
        {
          "internalType": "uint256",
          "name": "_height",
          "type": "uint256"
        },
        {
          "internalType": "enum MissingDiaries.Status",
          "name": "_status",
          "type": "uint8"
        },
        {
          "internalType": "string",
          "name": "_description",
          "type": "string"
        },
        {
          "internalType": "string",
          "name": "_division",
          "type": "string"
        },
        {
          "internalType": "string",
          "name": "_relative",
          "type": "string"
        }
      ],
      "name": "addMissingPerson",
      "outputs": [],
      "stateMutability": "nonpayable",
      "type": "function"
    }
  ],
  "bytecode": "0x60806040523480156200001157600080fd5b50620000e46040518060400160405280600881526020017f4a6f686e20446f65000000000000000000000000000000000000000000000000815250601960b460006040518060600160405280602a8152602001620015d6602a91396040518060400160405280600581526020017f4468616b610000000000000000000000000000000000000000000000000000008152506040518060400160405280600881526020017f4a616e6520446f65000000000000000000000000000000000000000000000000815250620001bc60201b60201c565b620001b66040518060400160405280600881526020017f4a616e6520446f65000000000000000000000000000000000000000000000000815250601460a060006040518060600160405280602a815260200162001600602a91396040518060400160405280600581526020017f4468616b610000000000000000000000000000000000000000000000000000008152506040518060400160405280600881526020017f4a6f686e20446f65000000000000000000000000000000000000000000000000815250620001bc60201b60201c565b620008e8565b60016000815480929190620001d1906200037a565b91905055506040518061010001604052806001548152602001888152602001878152602001868152602001856001811115620002125762000211620003c7565b5b81526020018481526020018381526020018281525060008060015481526020019081526020016000206000820151816000015560208201518160010190816200025c919062000666565b50604082015181600201556060820151816003015560808201518160040160006101000a81548160ff021916908360018111156200029f576200029e620003c7565b5b021790555060a0820151816005019081620002bb919062000666565b5060c0820151816006019081620002d3919062000666565b5060e0820151816007019081620002eb919062000666565b509050507faebcea47ce0f2ece1a1939221d9b40c036b7a410ff015f8227d3d0415ec9e53760015488888888888888604051620003309897969594939291906200083e565b60405180910390a150505050505050565b7f4e487b7100000000000000000000000000000000000000000000000000000000600052601160045260246000fd5b6000819050919050565b6000620003878262000370565b91507fffffffffffffffffffffffffffffffffffffffffffffffffffffffffffffffff8203620003bc57620003bb62000341565b5b600182019050919050565b7f4e487b7100000000000000000000000000000000000000000000000000000000600052602160045260246000fd5b600081519050919050565b7f4e487b7100000000000000000000000000000000000000000000000000000000600052604160045260246000fd5b7f4e487b7100000000000000000000000000000000000000000000000000000000600052602260045260246000fd5b600060028204905060018216806200047857607f821691505b6020821081036200048e576200048d62000430565b5b50919050565b60008190508160005260206000209050919050565b60006020601f8301049050919050565b600082821b905092915050565b600060088302620004f87fffffffffffffffffffffffffffffffffffffffffffffffffffffffffffffffff82620004b9565b620005048683620004b9565b95508019841693508086168417925050509392505050565b6000819050919050565b600062000547620005416200053b8462000370565b6200051c565b62000370565b9050919050565b6000819050919050565b620005638362000526565b6200057b62000572826200054e565b848454620004c6565b825550505050565b600090565b6200059262000583565b6200059f81848462000558565b505050565b5b81811015620005c757620005bb60008262000588565b600181019050620005a5565b5050565b601f8211156200061657620005e08162000494565b620005eb84620004a9565b81016020851015620005fb578190505b620006136200060a85620004a9565b830182620005a4565b50505b505050565b600082821c905092915050565b60006200063b600019846008026200061b565b1980831691505092915050565b600062000656838362000628565b9150826002028217905092915050565b6200067182620003f6565b67ffffffffffffffff8111156200068d576200068c62000401565b5b6200069982546200045f565b620006a6828285620005cb565b600060209050601f831160018114620006de5760008415620006c9578287015190505b620006d5858262000648565b86555062000745565b601f198416620006ee8662000494565b60005b828110156200071857848901518255600182019150602085019450602081019050620006f1565b8683101562000738578489015162000734601f89168262000628565b8355505b6001600288020188555050505b505050505050565b620007588162000370565b82525050565b600082825260208201905092915050565b60005b838110156200078f57808201518184015260208101905062000772565b60008484015250505050565b6000601f19601f8301169050919050565b6000620007b982620003f6565b620007c581856200075e565b9350620007d78185602086016200076f565b620007e2816200079b565b840191505092915050565b60028110620008015762000800620003c7565b5b50565b60008190506200081482620007ed565b919050565b6000620008268262000804565b9050919050565b620008388162000819565b82525050565b60006101008201905062000856600083018b6200074d565b81810360208301526200086a818a620007ac565b90506200087b60408301896200074d565b6200088a60608301886200074d565b6200089960808301876200082d565b81810360a0830152620008ad8186620007ac565b905081810360c0830152620008c38185620007ac565b905081810360e0830152620008d98184620007ac565b90509998505050505050505050565b610cde80620008f86000396000f3fe608060405234801561001057600080fd5b50600436106100415760003560e01c8063418f500414610046578063428ec3fb14610064578063b68f7ec714610080575b600080fd5b61004e6100b7565b60405161005b91906104be565b60405180910390f35b61007e60048036038101906100799190610684565b6100bd565b005b61009a60048036038101906100959190610796565b610230565b6040516100ae9897969594939291906108b9565b60405180910390f35b60015481565b600160008154809291906100d090610982565b9190505550604051806101000160405280600154815260200188815260200187815260200186815260200185600181111561010e5761010d610842565b5b81526020018481526020018381526020018281525060008060015481526020019081526020016000206000820151816000015560208201518160010190816101569190610bd6565b50604082015181600201556060820151816003015560808201518160040160006101000a81548160ff0219169083600181111561019657610195610842565b5b021790555060a08201518160050190816101b09190610bd6565b5060c08201518160060190816101c69190610bd6565b5060e08201518160070190816101dc9190610bd6565b509050507faebcea47ce0f2ece1a1939221d9b40c036b7a410ff015f8227d3d0415ec9e5376001548888888888888860405161021f9897969594939291906108b9565b60405180910390a150505050505050565b6000602052806000526040600020600091509050806000015490806001018054610259906109f9565b80601f0160208091040260200160405190810160405280929190818152602001828054610285906109f9565b80156102d25780601f106102a7576101008083540402835291602001916102d2565b820191906000526020600020905b8154815290600101906020018083116102b557829003601f168201915b5050505050908060020154908060030154908060040160009054906101000a900460ff1690806005018054610306906109f9565b80601f0160208091040260200160405190810160405280929190818152602001828054610332906109f9565b801561037f5780601f106103545761010080835404028352916020019161037f565b820191906000526020600020905b81548152906001019060200180831161036257829003601f168201915b505050505090806006018054610394906109f9565b80601f01602080910402602001604051908101604052809291908181526020018280546103c0906109f9565b801561040d5780601f106103e25761010080835404028352916020019161040d565b820191906000526020600020905b8154815290600101906020018083116103f057829003601f168201915b505050505090806007018054610422906109f9565b80601f016020809104026020016040519081016040528092919081815260200182805461044e906109f9565b801561049b5780601f106104705761010080835404028352916020019161049b565b820191906000526020600020905b81548152906001019060200180831161047e57829003601f168201915b5050505050905088565b6000819050919050565b6104b8816104a5565b82525050565b60006020820190506104d360008301846104af565b92915050565b6000604051905090565b600080fd5b600080fd5b600080fd5b600080fd5b6000601f19601f8301169050919050565b7f4e487b7100000000000000000000000000000000000000000000000000000000600052604160045260246000fd5b610540826104f7565b810181811067ffffffffffffffff8211171561055f5761055e610508565b5b80604052505050565b60006105726104d9565b905061057e8282610537565b919050565b600067ffffffffffffffff82111561059e5761059d610508565b5b6105a7826104f7565b9050602081019050919050565b82818337600083830152505050565b60006105d66105d184610583565b610568565b9050828152602081018484840111156105f2576105f16104f2565b5b6105fd8482856105b4565b509392505050565b600082601f83011261061a576106196104ed565b5b813561062a8482602086016105c3565b91505092915050565b61063c816104a5565b811461064757600080fd5b50565b60008135905061065981610633565b92915050565b6002811061066c57600080fd5b50565b60008135905061067e8161065f565b92915050565b600080600080600080600060e0888a0312156106a3576106a26104e3565b5b600088013567ffffffffffffffff8111156106c1576106c06104e8565b5b6106cd8a828b01610605565b97505060206106de8a828b0161064a565b96505060406106ef8a828b0161064a565b95505060606107008a828b0161066f565b945050608088013567ffffffffffffffff811115610721576107206104e8565b5b61072d8a828b01610605565b93505060a088013567ffffffffffffffff81111561074e5761074d6104e8565b5b61075a8a828b01610605565b92505060c088013567ffffffffffffffff81111561077b5761077a6104e8565b5b6107878a828b01610605565b91505092959891949750929550565b6000602082840312156107ac576107ab6104e3565b5b60006107ba8482850161064a565b91505092915050565b600081519050919050565b600082825260208201905092915050565b60005b838110156107fd5780820151818401526020810190506107e2565b60008484015250505050565b6000610814826107c3565b61081e81856107ce565b935061082e8185602086016107df565b610837816104f7565b840191505092915050565b7f4e487b7100000000000000000000000000000000000000000000000000000000600052602160045260246000fd5b6002811061088257610881610842565b5b50565b600081905061089382610871565b919050565b60006108a382610885565b9050919050565b6108b381610898565b82525050565b6000610100820190506108cf600083018b6104af565b81810360208301526108e1818a610809565b90506108f060408301896104af565b6108fd60608301886104af565b61090a60808301876108aa565b81810360a083015261091c8186610809565b905081810360c08301526109308185610809565b905081810360e08301526109448184610809565b90509998505050505050505050565b7f4e487b7100000000000000000000000000000000000000000000000000000000600052601160045260246000fd5b600061098d826104a5565b91507fffffffffffffffffffffffffffffffffffffffffffffffffffffffffffffffff82036109bf576109be610953565b5b600182019050919050565b7f4e487b7100000000000000000000000000000000000000000000000000000000600052602260045260246000fd5b60006002820490506001821680610a1157607f821691505b602082108103610a2457610a236109ca565b5b50919050565b60008190508160005260206000209050919050565b60006020601f8301049050919050565b600082821b905092915050565b600060088302610a8c7fffffffffffffffffffffffffffffffffffffffffffffffffffffffffffffffff82610a4f565b610a968683610a4f565b95508019841693508086168417925050509392505050565b6000819050919050565b6000610ad3610ace610ac9846104a5565b610aae565b6104a5565b9050919050565b6000819050919050565b610aed83610ab8565b610b01610af982610ada565b848454610a5c565b825550505050565b600090565b610b16610b09565b610b21818484610ae4565b505050565b5b81811015610b4557610b3a600082610b0e565b600181019050610b27565b5050565b601f821115610b8a57610b5b81610a2a565b610b6484610a3f565b81016020851015610b73578190505b610b87610b7f85610a3f565b830182610b26565b50505b505050565b600082821c905092915050565b6000610bad60001984600802610b8f565b1980831691505092915050565b6000610bc68383610b9c565b9150826002028217905092915050565b610bdf826107c3565b67ffffffffffffffff811115610bf857610bf7610508565b5b610c0282546109f9565b610c0d828285610b49565b600060209050601f831160018114610c405760008415610c2e578287015190505b610c388582610bba565b865550610ca0565b601f198416610c4e86610a2a565b60005b82811015610c7657848901518255600182019150602085019450602081019050610c51565b86831015610c935784890151610c8f601f891682610b9c565b8355505b6001600288020188555050505b50505050505056fea264697066735822122023f85a1c09b67b546aa3177dfc631411fd7c9ffbbafd9c7306c867130acf213064736f6c634300081000334a6f686e20446f65206973206d697373696e672073696e636520326e64204a616e7561727920323032314a616e6520446f65206973206d697373696e672073696e636520326e64204a616e756172792032303231",
  "immutableReferences": {},
  "source": "// SPDX-License-Identifier: GPL-3.0\npragma solidity >=0.7.0 <0.9.0;\n\n\ncontract MissingDiaries {\n\n    enum Status { Missing, Found }\n\n    struct MissingPerson {\n        uint id;\n        string name;\n        uint age;\n        uint height;\n        Status status;\n        string description;\n        string division;\n        string relative;\n    }\n\n    mapping(uint => MissingPerson) public missingPeople;\n\n    uint public missingPeopleCount;\n\n    event missingPersonAdded(uint id, string name, uint age, uint height, Status status, string description, string division, string relative);\n\n    constructor() {\n        addMissingPerson(\"John Doe\", 25, 180, Status.Missing, \"John Doe is missing since 2nd January 2021\", \"Dhaka\", \"Jane Doe\");\n        addMissingPerson(\"Jane Doe\", 20, 160, Status.Missing, \"Jane Doe is missing since 2nd January 2021\", \"Dhaka\", \"John Doe\");\n    }\n\n    function addMissingPerson(string memory _name, uint _age, uint _height, Status _status, string memory _description, string memory _division, string memory _relative) public {\n        missingPeopleCount++;\n        missingPeople[missingPeopleCount] = MissingPerson(missingPeopleCount, _name, _age, _height, _status, _description, _division, _relative);\n        emit missingPersonAdded(missingPeopleCount, _name, _age, _height, _status, _description, _division, _relative);\n    }\n\n    // function getMissingPerson(uint _id) public view returns (uint, string memory, uint, uint, Status, string memory, string memory, string memory) {\n    //     return (_id, missingPeople[_id].name, missingPeople[_id].age, missingPeople[_id].height, missingPeople[_id].status, missingPeople[_id].description, missingPeople[_id].division, missingPeople[_id].relative);\n    // }\n\n\n//    event votedEvent( uint indexed _candidateId );\n//    // model a candidate\n//    struct Candidate {\n//        uint id;\n//        string name;\n//        uint voteCount;\n//    }\n//    // Store accounts that have voted\n//    mapping( address => bool ) public voters;\n\n\n//    // Read/write candidates\n//    mapping( uint => Candidate ) public candidates;\n\n\n//    // store candidates count\n//    uint public candidatesCount;\n\n\n//    // Constructor\n//    constructor() {\n//        addCandidate( \"Candidate 1\" );\n//        addCandidate( \"Candidate 2\" );\n//    }\n\n\n//    // adding candidates\n//    function addCandidate( string memory _name ) private {\n//        candidatesCount++;\n//        candidates[ candidatesCount ] = Candidate( candidatesCount, _name, 0 );\n//    }\n\n\n//    // cast vote\n//    function vote( uint _candidateId ) public {\n//        // require that the current voter haven't voted before\n//        require( !voters[ msg.sender ]);\n\n\n//        // candidate should be valid\n//        require( _candidateId > 0 && _candidateId <= candidatesCount );\n\n\n//        // record voters vote\n//        voters[ msg.sender ] = true;\n\n\n//        // update candidates vote count\n//        candidates[ _candidateId ].voteCount++;\n//        emit votedEvent( _candidateId );\n//               }\n}",
  "sourcePath": "/home/roote/Desktop/election/contracts/MissingDiaries.sol",
  "compiler": {
    "name": "solc",
    "version": "0.8.16+commit.07a7930e.Emscripten.clang"
  },
  "schemaVersion": "3.4.16",
  "updatedAt": "2023-11-29T06:43:01.174Z",
  "networkType": "ethereum",
  "devdoc": {
    "kind": "dev",
    "methods": {},
    "version": 1
  },
  "userdoc": {
    "kind": "user",
    "methods": {},
    "version": 1
  }
}