{
  "contractName": "MissingDiaries",
  "abi": [
    {
      "inputs": [],
      "stateMutability": "nonpayable",
      "type": "constructor"
    },
    {
      "anonymous": false,
      "inputs": [
        {
          "indexed": false,
          "internalType": "uint256",
          "name": "id",
          "type": "uint256"
        },
        {
          "indexed": false,
          "internalType": "string",
          "name": "name",
          "type": "string"
        },
        {
          "indexed": false,
          "internalType": "uint256",
          "name": "age",
          "type": "uint256"
        },
        {
          "indexed": false,
          "internalType": "uint256",
          "name": "height",
          "type": "uint256"
        },
        {
          "indexed": false,
          "internalType": "enum MissingDiaries.Status",
          "name": "status",
          "type": "uint8"
        },
        {
          "indexed": false,
          "internalType": "string",
          "name": "description",
          "type": "string"
        },
        {
          "indexed": false,
          "internalType": "string",
          "name": "division",
          "type": "string"
        },
        {
          "indexed": false,
          "internalType": "string",
          "name": "relative",
          "type": "string"
        }
      ],
      "name": "missingPersonAdded",
      "type": "event"
    },
    {
      "inputs": [
        {
          "internalType": "uint256",
          "name": "",
          "type": "uint256"
        }
      ],
      "name": "missingPeople",
      "outputs": [
        {
          "internalType": "uint256",
          "name": "id",
          "type": "uint256"
        },
        {
          "internalType": "string",
          "name": "name",
          "type": "string"
        },
        {
          "internalType": "uint256",
          "name": "age",
          "type": "uint256"
        },
        {
          "internalType": "uint256",
          "name": "height",
          "type": "uint256"
        },
        {
          "internalType": "enum MissingDiaries.Status",
          "name": "status",
          "type": "uint8"
        },
        {
          "internalType": "string",
          "name": "description",
          "type": "string"
        },
        {
          "internalType": "string",
          "name": "division",
          "type": "string"
        },
        {
          "internalType": "string",
          "name": "relative",
          "type": "string"
        }
      ],
      "stateMutability": "view",
      "type": "function",
      "constant": true
    },
    {
      "inputs": [],
      "name": "missingPeopleCount",
      "outputs": [
        {
          "internalType": "uint256",
          "name": "",
          "type": "uint256"
        }
      ],
      "stateMutability": "view",
      "type": "function",
      "constant": true
    },
    {
      "inputs": [
        {
          "internalType": "string",
          "name": "_name",
          "type": "string"
        },
        {
          "internalType": "uint256",
          "name": "_age",
          "type": "uint256"
        },
        {
          "internalType": "uint256",
          "name": "_height",
          "type": "uint256"
        },
        {
          "internalType": "enum MissingDiaries.Status",
          "name": "_status",
          "type": "uint8"
        },
        {
          "internalType": "string",
          "name": "_description",
          "type": "string"
        },
        {
          "internalType": "string",
          "name": "_division",
          "type": "string"
        },
        {
          "internalType": "string",
          "name": "_relative",
          "type": "string"
        }
      ],
      "name": "addMissingPerson",
      "outputs": [],
      "stateMutability": "nonpayable",
      "type": "function"
    },
    {
      "inputs": [],
      "name": "getMissingPersons",
      "outputs": [
        {
          "components": [
            {
              "internalType": "uint256",
              "name": "id",
              "type": "uint256"
            },
            {
              "internalType": "string",
              "name": "name",
              "type": "string"
            },
            {
              "internalType": "uint256",
              "name": "age",
              "type": "uint256"
            },
            {
              "internalType": "uint256",
              "name": "height",
              "type": "uint256"
            },
            {
              "internalType": "enum MissingDiaries.Status",
              "name": "status",
              "type": "uint8"
            },
            {
              "internalType": "string",
              "name": "description",
              "type": "string"
            },
            {
              "internalType": "string",
              "name": "division",
              "type": "string"
            },
            {
              "internalType": "string",
              "name": "relative",
              "type": "string"
            }
          ],
          "internalType": "struct MissingDiaries.MissingPerson[]",
          "name": "",
          "type": "tuple[]"
        }
      ],
      "stateMutability": "view",
      "type": "function",
      "constant": true
    }
  ],
  "bytecode": "0x60806040523480156200001157600080fd5b50620000e46040518060400160405280600881526020017f4a6f686e20446f65000000000000000000000000000000000000000000000000815250601960b460006040518060600160405280602a815260200162001c37602a91396040518060400160405280600581526020017f4468616b610000000000000000000000000000000000000000000000000000008152506040518060400160405280600881526020017f4a616e6520446f65000000000000000000000000000000000000000000000000815250620001bc60201b60201c565b620001b66040518060400160405280600881526020017f4a616e6520446f65000000000000000000000000000000000000000000000000815250601460a060006040518060600160405280602a815260200162001c61602a91396040518060400160405280600581526020017f4468616b610000000000000000000000000000000000000000000000000000008152506040518060400160405280600881526020017f4a6f686e20446f65000000000000000000000000000000000000000000000000815250620001bc60201b60201c565b620008e8565b60016000815480929190620001d1906200037a565b91905055506040518061010001604052806001548152602001888152602001878152602001868152602001856001811115620002125762000211620003c7565b5b81526020018481526020018381526020018281525060008060015481526020019081526020016000206000820151816000015560208201518160010190816200025c919062000666565b50604082015181600201556060820151816003015560808201518160040160006101000a81548160ff021916908360018111156200029f576200029e620003c7565b5b021790555060a0820151816005019081620002bb919062000666565b5060c0820151816006019081620002d3919062000666565b5060e0820151816007019081620002eb919062000666565b509050507faebcea47ce0f2ece1a1939221d9b40c036b7a410ff015f8227d3d0415ec9e53760015488888888888888604051620003309897969594939291906200083e565b60405180910390a150505050505050565b7f4e487b7100000000000000000000000000000000000000000000000000000000600052601160045260246000fd5b6000819050919050565b6000620003878262000370565b91507fffffffffffffffffffffffffffffffffffffffffffffffffffffffffffffffff8203620003bc57620003bb62000341565b5b600182019050919050565b7f4e487b7100000000000000000000000000000000000000000000000000000000600052602160045260246000fd5b600081519050919050565b7f4e487b7100000000000000000000000000000000000000000000000000000000600052604160045260246000fd5b7f4e487b7100000000000000000000000000000000000000000000000000000000600052602260045260246000fd5b600060028204905060018216806200047857607f821691505b6020821081036200048e576200048d62000430565b5b50919050565b60008190508160005260206000209050919050565b60006020601f8301049050919050565b600082821b905092915050565b600060088302620004f87fffffffffffffffffffffffffffffffffffffffffffffffffffffffffffffffff82620004b9565b620005048683620004b9565b95508019841693508086168417925050509392505050565b6000819050919050565b600062000547620005416200053b8462000370565b6200051c565b62000370565b9050919050565b6000819050919050565b620005638362000526565b6200057b62000572826200054e565b848454620004c6565b825550505050565b600090565b6200059262000583565b6200059f81848462000558565b505050565b5b81811015620005c757620005bb60008262000588565b600181019050620005a5565b5050565b601f8211156200061657620005e08162000494565b620005eb84620004a9565b81016020851015620005fb578190505b620006136200060a85620004a9565b830182620005a4565b50505b505050565b600082821c905092915050565b60006200063b600019846008026200061b565b1980831691505092915050565b600062000656838362000628565b9150826002028217905092915050565b6200067182620003f6565b67ffffffffffffffff8111156200068d576200068c62000401565b5b6200069982546200045f565b620006a6828285620005cb565b600060209050601f831160018114620006de5760008415620006c9578287015190505b620006d5858262000648565b86555062000745565b601f198416620006ee8662000494565b60005b828110156200071857848901518255600182019150602085019450602081019050620006f1565b8683101562000738578489015162000734601f89168262000628565b8355505b6001600288020188555050505b505050505050565b620007588162000370565b82525050565b600082825260208201905092915050565b60005b838110156200078f57808201518184015260208101905062000772565b60008484015250505050565b6000601f19601f8301169050919050565b6000620007b982620003f6565b620007c581856200075e565b9350620007d78185602086016200076f565b620007e2816200079b565b840191505092915050565b60028110620008015762000800620003c7565b5b50565b60008190506200081482620007ed565b919050565b6000620008268262000804565b9050919050565b620008388162000819565b82525050565b60006101008201905062000856600083018b6200074d565b81810360208301526200086a818a620007ac565b90506200087b60408301896200074d565b6200088a60608301886200074d565b6200089960808301876200082d565b81810360a0830152620008ad8186620007ac565b905081810360c0830152620008c38185620007ac565b905081810360e0830152620008d98184620007ac565b90509998505050505050505050565b61133f80620008f86000396000f3fe608060405234801561001057600080fd5b506004361061004c5760003560e01c8063418f500414610051578063428ec3fb1461006f57806397eae2451461008b578063b68f7ec7146100a9575b600080fd5b6100596100e0565b60405161006691906108ab565b60405180910390f35b61008960048036038101906100849190610a71565b6100e6565b005b610093610259565b6040516100a09190610e0f565b60405180910390f35b6100c360048036038101906100be9190610e31565b6105c6565b6040516100d7989796959493929190610eb7565b60405180910390f35b60015481565b600160008154809291906100f990610f80565b9190505550604051806101000160405280600154815260200188815260200187815260200186815260200185600181111561013757610136610c3d565b5b815260200184815260200183815260200182815250600080600154815260200190815260200160002060008201518160000155602082015181600101908161017f91906111d4565b50604082015181600201556060820151816003015560808201518160040160006101000a81548160ff021916908360018111156101bf576101be610c3d565b5b021790555060a08201518160050190816101d991906111d4565b5060c08201518160060190816101ef91906111d4565b5060e082015181600701908161020591906111d4565b509050507faebcea47ce0f2ece1a1939221d9b40c036b7a410ff015f8227d3d0415ec9e53760015488888888888888604051610248989796959493929190610eb7565b60405180910390a150505050505050565b6060600060015467ffffffffffffffff811115610279576102786108f5565b5b6040519080825280602002602001820160405280156102b257816020015b61029f61083b565b8152602001906001900390816102975790505b50905060005b6001548110156105be576000806001836102d291906112a6565b8152602001908152602001600020604051806101000160405290816000820154815260200160018201805461030690610ff7565b80601f016020809104026020016040519081016040528092919081815260200182805461033290610ff7565b801561037f5780601f106103545761010080835404028352916020019161037f565b820191906000526020600020905b81548152906001019060200180831161036257829003601f168201915b5050505050815260200160028201548152602001600382015481526020016004820160009054906101000a900460ff1660018111156103c1576103c0610c3d565b5b60018111156103d3576103d2610c3d565b5b81526020016005820180546103e790610ff7565b80601f016020809104026020016040519081016040528092919081815260200182805461041390610ff7565b80156104605780601f1061043557610100808354040283529160200191610460565b820191906000526020600020905b81548152906001019060200180831161044357829003601f168201915b5050505050815260200160068201805461047990610ff7565b80601f01602080910402602001604051908101604052809291908181526020018280546104a590610ff7565b80156104f25780601f106104c7576101008083540402835291602001916104f2565b820191906000526020600020905b8154815290600101906020018083116104d557829003601f168201915b5050505050815260200160078201805461050b90610ff7565b80601f016020809104026020016040519081016040528092919081815260200182805461053790610ff7565b80156105845780601f1061055957610100808354040283529160200191610584565b820191906000526020600020905b81548152906001019060200180831161056757829003601f168201915b5050505050815250508282815181106105a05761059f6112da565b5b602002602001018190525080806105b690610f80565b9150506102b8565b508091505090565b60006020528060005260406000206000915090508060000154908060010180546105ef90610ff7565b80601f016020809104026020016040519081016040528092919081815260200182805461061b90610ff7565b80156106685780601f1061063d57610100808354040283529160200191610668565b820191906000526020600020905b81548152906001019060200180831161064b57829003601f168201915b5050505050908060020154908060030154908060040160009054906101000a900460ff169080600501805461069c90610ff7565b80601f01602080910402602001604051908101604052809291908181526020018280546106c890610ff7565b80156107155780601f106106ea57610100808354040283529160200191610715565b820191906000526020600020905b8154815290600101906020018083116106f857829003601f168201915b50505050509080600601805461072a90610ff7565b80601f016020809104026020016040519081016040528092919081815260200182805461075690610ff7565b80156107a35780601f10610778576101008083540402835291602001916107a3565b820191906000526020600020905b81548152906001019060200180831161078657829003601f168201915b5050505050908060070180546107b890610ff7565b80601f01602080910402602001604051908101604052809291908181526020018280546107e490610ff7565b80156108315780601f1061080657610100808354040283529160200191610831565b820191906000526020600020905b81548152906001019060200180831161081457829003601f168201915b5050505050905088565b604051806101000160405280600081526020016060815260200160008152602001600081526020016000600181111561087757610876610c3d565b5b81526020016060815260200160608152602001606081525090565b6000819050919050565b6108a581610892565b82525050565b60006020820190506108c0600083018461089c565b92915050565b6000604051905090565b600080fd5b600080fd5b600080fd5b600080fd5b6000601f19601f8301169050919050565b7f4e487b7100000000000000000000000000000000000000000000000000000000600052604160045260246000fd5b61092d826108e4565b810181811067ffffffffffffffff8211171561094c5761094b6108f5565b5b80604052505050565b600061095f6108c6565b905061096b8282610924565b919050565b600067ffffffffffffffff82111561098b5761098a6108f5565b5b610994826108e4565b9050602081019050919050565b82818337600083830152505050565b60006109c36109be84610970565b610955565b9050828152602081018484840111156109df576109de6108df565b5b6109ea8482856109a1565b509392505050565b600082601f830112610a0757610a066108da565b5b8135610a178482602086016109b0565b91505092915050565b610a2981610892565b8114610a3457600080fd5b50565b600081359050610a4681610a20565b92915050565b60028110610a5957600080fd5b50565b600081359050610a6b81610a4c565b92915050565b600080600080600080600060e0888a031215610a9057610a8f6108d0565b5b600088013567ffffffffffffffff811115610aae57610aad6108d5565b5b610aba8a828b016109f2565b9750506020610acb8a828b01610a37565b9650506040610adc8a828b01610a37565b9550506060610aed8a828b01610a5c565b945050608088013567ffffffffffffffff811115610b0e57610b0d6108d5565b5b610b1a8a828b016109f2565b93505060a088013567ffffffffffffffff811115610b3b57610b3a6108d5565b5b610b478a828b016109f2565b92505060c088013567ffffffffffffffff811115610b6857610b676108d5565b5b610b748a828b016109f2565b91505092959891949750929550565b600081519050919050565b600082825260208201905092915050565b6000819050602082019050919050565b610bb881610892565b82525050565b600081519050919050565b600082825260208201905092915050565b60005b83811015610bf8578082015181840152602081019050610bdd565b60008484015250505050565b6000610c0f82610bbe565b610c198185610bc9565b9350610c29818560208601610bda565b610c32816108e4565b840191505092915050565b7f4e487b7100000000000000000000000000000000000000000000000000000000600052602160045260246000fd5b60028110610c7d57610c7c610c3d565b5b50565b6000819050610c8e82610c6c565b919050565b6000610c9e82610c80565b9050919050565b610cae81610c93565b82525050565b600061010083016000830151610ccd6000860182610baf565b5060208301518482036020860152610ce58282610c04565b9150506040830151610cfa6040860182610baf565b506060830151610d0d6060860182610baf565b506080830151610d206080860182610ca5565b5060a083015184820360a0860152610d388282610c04565b91505060c083015184820360c0860152610d528282610c04565b91505060e083015184820360e0860152610d6c8282610c04565b9150508091505092915050565b6000610d858383610cb4565b905092915050565b6000602082019050919050565b6000610da582610b83565b610daf8185610b8e565b935083602082028501610dc185610b9f565b8060005b85811015610dfd5784840389528151610dde8582610d79565b9450610de983610d8d565b925060208a01995050600181019050610dc5565b50829750879550505050505092915050565b60006020820190508181036000830152610e298184610d9a565b905092915050565b600060208284031215610e4757610e466108d0565b5b6000610e5584828501610a37565b91505092915050565b600082825260208201905092915050565b6000610e7a82610bbe565b610e848185610e5e565b9350610e94818560208601610bda565b610e9d816108e4565b840191505092915050565b610eb181610c93565b82525050565b600061010082019050610ecd600083018b61089c565b8181036020830152610edf818a610e6f565b9050610eee604083018961089c565b610efb606083018861089c565b610f086080830187610ea8565b81810360a0830152610f1a8186610e6f565b905081810360c0830152610f2e8185610e6f565b905081810360e0830152610f428184610e6f565b90509998505050505050505050565b7f4e487b7100000000000000000000000000000000000000000000000000000000600052601160045260246000fd5b6000610f8b82610892565b91507fffffffffffffffffffffffffffffffffffffffffffffffffffffffffffffffff8203610fbd57610fbc610f51565b5b600182019050919050565b7f4e487b7100000000000000000000000000000000000000000000000000000000600052602260045260246000fd5b6000600282049050600182168061100f57607f821691505b60208210810361102257611021610fc8565b5b50919050565b60008190508160005260206000209050919050565b60006020601f8301049050919050565b600082821b905092915050565b60006008830261108a7fffffffffffffffffffffffffffffffffffffffffffffffffffffffffffffffff8261104d565b611094868361104d565b95508019841693508086168417925050509392505050565b6000819050919050565b60006110d16110cc6110c784610892565b6110ac565b610892565b9050919050565b6000819050919050565b6110eb836110b6565b6110ff6110f7826110d8565b84845461105a565b825550505050565b600090565b611114611107565b61111f8184846110e2565b505050565b5b818110156111435761113860008261110c565b600181019050611125565b5050565b601f8211156111885761115981611028565b6111628461103d565b81016020851015611171578190505b61118561117d8561103d565b830182611124565b50505b505050565b600082821c905092915050565b60006111ab6000198460080261118d565b1980831691505092915050565b60006111c4838361119a565b9150826002028217905092915050565b6111dd82610bbe565b67ffffffffffffffff8111156111f6576111f56108f5565b5b6112008254610ff7565b61120b828285611147565b600060209050601f83116001811461123e576000841561122c578287015190505b61123685826111b8565b86555061129e565b601f19841661124c86611028565b60005b828110156112745784890151825560018201915060208501945060208101905061124f565b86831015611291578489015161128d601f89168261119a565b8355505b6001600288020188555050505b505050505050565b60006112b182610892565b91506112bc83610892565b92508282019050808211156112d4576112d3610f51565b5b92915050565b7f4e487b7100000000000000000000000000000000000000000000000000000000600052603260045260246000fdfea264697066735822122062e44bec42189616200ef5d339bcb360978e5628ebc648d8905522aef9a3fc6a64736f6c634300081000334a6f686e20446f65206973206d697373696e672073696e636520326e64204a616e7561727920323032314a616e6520446f65206973206d697373696e672073696e636520326e64204a616e756172792032303231",
  "immutableReferences": {},
  "source": "// SPDX-License-Identifier: GPL-3.0\npragma solidity >=0.7.0 <0.9.0;\n\n\ncontract MissingDiaries {\n\n    enum Status { Missing, Found }\n\n    struct MissingPerson {\n        uint id;\n        string name;\n        uint age;\n        uint height;\n        Status status;\n        string description;\n        string division;\n        string relative;\n    }\n\n    mapping(uint => MissingPerson) public missingPeople;\n\n    uint public missingPeopleCount;\n\n    event missingPersonAdded(uint id, string name, uint age, uint height, Status status, string description, string division, string relative);\n\n    constructor() {\n        addMissingPerson(\"John Doe\", 25, 180, Status.Missing, \"John Doe is missing since 2nd January 2021\", \"Dhaka\", \"Jane Doe\");\n        addMissingPerson(\"Jane Doe\", 20, 160, Status.Missing, \"Jane Doe is missing since 2nd January 2021\", \"Dhaka\", \"John Doe\");\n    }\n\n    function addMissingPerson(string memory _name, uint _age, uint _height, Status _status, string memory _description, string memory _division, string memory _relative) public {\n        missingPeopleCount++;\n        missingPeople[missingPeopleCount] = MissingPerson(missingPeopleCount, _name, _age, _height, _status, _description, _division, _relative);\n        emit missingPersonAdded(missingPeopleCount, _name, _age, _height, _status, _description, _division, _relative);\n    }\n\n    function getMissingPersons() public view returns (MissingPerson[] memory) {\n        MissingPerson[] memory missingPersons = new MissingPerson[](missingPeopleCount);\n        for (uint i = 0; i < missingPeopleCount; i++) {\n            missingPersons[i] = missingPeople[i + 1];\n        }\n        return missingPersons;\n    }\n\n    // function getMissingPerson(uint _id) public view returns (uint, string memory, uint, uint, Status, string memory, string memory, string memory) {\n    //     return (_id, missingPeople[_id].name, missingPeople[_id].age, missingPeople[_id].height, missingPeople[_id].status, missingPeople[_id].description, missingPeople[_id].division, missingPeople[_id].relative);\n    // }\n\n\n//    event votedEvent( uint indexed _candidateId );\n//    // model a candidate\n//    struct Candidate {\n//        uint id;\n//        string name;\n//        uint voteCount;\n//    }\n//    // Store accounts that have voted\n//    mapping( address => bool ) public voters;\n\n\n//    // Read/write candidates\n//    mapping( uint => Candidate ) public candidates;\n\n\n//    // store candidates count\n//    uint public candidatesCount;\n\n\n//    // Constructor\n//    constructor() {\n//        addCandidate( \"Candidate 1\" );\n//        addCandidate( \"Candidate 2\" );\n//    }\n\n\n//    // adding candidates\n//    function addCandidate( string memory _name ) private {\n//        candidatesCount++;\n//        candidates[ candidatesCount ] = Candidate( candidatesCount, _name, 0 );\n//    }\n\n\n//    // cast vote\n//    function vote( uint _candidateId ) public {\n//        // require that the current voter haven't voted before\n//        require( !voters[ msg.sender ]);\n\n\n//        // candidate should be valid\n//        require( _candidateId > 0 && _candidateId <= candidatesCount );\n\n\n//        // record voters vote\n//        voters[ msg.sender ] = true;\n\n\n//        // update candidates vote count\n//        candidates[ _candidateId ].voteCount++;\n//        emit votedEvent( _candidateId );\n//               }\n}",
  "sourcePath": "/home/roote/Desktop/election/contracts/MissingDiaries.sol",
  "compiler": {
    "name": "solc",
    "version": "0.8.16+commit.07a7930e.Emscripten.clang"
  },
  "schemaVersion": "3.4.16",
  "updatedAt": "2023-11-29T06:07:17.169Z",
  "networkType": "ethereum",
  "devdoc": {
    "kind": "dev",
    "methods": {},
    "version": 1
  },
  "userdoc": {
    "kind": "user",
    "methods": {},
    "version": 1
  }
}