{
  "contractName": "MissingDiaries",
  "abi": [
    {
      "inputs": [],
      "stateMutability": "nonpayable",
      "type": "constructor"
    },
    {
      "anonymous": false,
      "inputs": [
        {
          "indexed": true,
          "internalType": "uint256",
          "name": "_missingPersonId",
          "type": "uint256"
        },
        {
          "indexed": false,
          "internalType": "string",
          "name": "_name",
          "type": "string"
        },
        {
          "indexed": false,
          "internalType": "uint256",
          "name": "_age",
          "type": "uint256"
        },
        {
          "indexed": false,
          "internalType": "uint256",
          "name": "_height",
          "type": "uint256"
        },
        {
          "indexed": false,
          "internalType": "enum MissingDiaries.Status",
          "name": "_status",
          "type": "uint8"
        },
        {
          "indexed": false,
          "internalType": "string",
          "name": "_description",
          "type": "string"
        },
        {
          "indexed": false,
          "internalType": "string",
          "name": "_division",
          "type": "string"
        },
        {
          "indexed": false,
          "internalType": "string",
          "name": "_relative",
          "type": "string"
        }
      ],
      "name": "missingPersonAdded",
      "type": "event"
    },
    {
      "anonymous": false,
      "inputs": [
        {
          "indexed": true,
          "internalType": "uint256",
          "name": "_missingPersonId",
          "type": "uint256"
        },
        {
          "indexed": false,
          "internalType": "enum MissingDiaries.Status",
          "name": "_newStatus",
          "type": "uint8"
        }
      ],
      "name": "statusToggled",
      "type": "event"
    },
    {
      "inputs": [
        {
          "internalType": "uint256",
          "name": "",
          "type": "uint256"
        }
      ],
      "name": "missingPeople",
      "outputs": [
        {
          "internalType": "uint256",
          "name": "id",
          "type": "uint256"
        },
        {
          "internalType": "string",
          "name": "name",
          "type": "string"
        },
        {
          "internalType": "uint256",
          "name": "age",
          "type": "uint256"
        },
        {
          "internalType": "uint256",
          "name": "height",
          "type": "uint256"
        },
        {
          "internalType": "enum MissingDiaries.Status",
          "name": "status",
          "type": "uint8"
        },
        {
          "internalType": "string",
          "name": "description",
          "type": "string"
        },
        {
          "internalType": "string",
          "name": "division",
          "type": "string"
        },
        {
          "internalType": "string",
          "name": "relative",
          "type": "string"
        }
      ],
      "stateMutability": "view",
      "type": "function"
    },
    {
      "inputs": [],
      "name": "missingPeopleCount",
      "outputs": [
        {
          "internalType": "uint256",
          "name": "",
          "type": "uint256"
        }
      ],
      "stateMutability": "view",
      "type": "function"
    },
    {
      "inputs": [
        {
          "internalType": "string",
          "name": "_name",
          "type": "string"
        },
        {
          "internalType": "uint256",
          "name": "_age",
          "type": "uint256"
        },
        {
          "internalType": "uint256",
          "name": "_height",
          "type": "uint256"
        },
        {
          "internalType": "enum MissingDiaries.Status",
          "name": "_status",
          "type": "uint8"
        },
        {
          "internalType": "string",
          "name": "_description",
          "type": "string"
        },
        {
          "internalType": "string",
          "name": "_division",
          "type": "string"
        },
        {
          "internalType": "string",
          "name": "_relative",
          "type": "string"
        }
      ],
      "name": "addMissingPerson",
      "outputs": [],
      "stateMutability": "nonpayable",
      "type": "function"
    },
    {
      "inputs": [
        {
          "internalType": "uint256",
          "name": "_id",
          "type": "uint256"
        }
      ],
      "name": "foundPerson",
      "outputs": [],
      "stateMutability": "nonpayable",
      "type": "function"
    },
    {
      "inputs": [],
      "name": "getCount",
      "outputs": [
        {
          "internalType": "uint256[8]",
          "name": "",
          "type": "uint256[8]"
        }
      ],
      "stateMutability": "view",
      "type": "function"
    },
    {
      "inputs": [
        {
          "internalType": "string",
          "name": "_district",
          "type": "string"
        }
      ],
      "name": "getCountByDistrict",
      "outputs": [
        {
          "internalType": "uint256",
          "name": "",
          "type": "uint256"
        }
      ],
      "stateMutability": "view",
      "type": "function"
    }
  ],
  "bytecode": "0x60806040523480156200001157600080fd5b50620000e46040518060400160405280600881526020017f4a6f686e20446f65000000000000000000000000000000000000000000000000815250601960b460016040518060600160405280602a815260200162001c5d602a91396040518060400160405280600581526020017f4468616b610000000000000000000000000000000000000000000000000000008152506040518060400160405280600881526020017f4a616e6520446f65000000000000000000000000000000000000000000000000815250620001bc60201b60201c565b620001b66040518060400160405280600881526020017f4a616e6520446f65000000000000000000000000000000000000000000000000815250601460a060006040518060600160405280602a815260200162001c87602a91396040518060400160405280600581526020017f4468616b610000000000000000000000000000000000000000000000000000008152506040518060400160405280600881526020017f4a6f686e20446f65000000000000000000000000000000000000000000000000815250620001bc60201b60201c565b620008d6565b60016000815480929190620001d19062000379565b91905055506040518061010001604052806001548152602001888152602001878152602001868152602001856001811115620002125762000211620003c6565b5b81526020018481526020018381526020018281525060008060015481526020019081526020016000206000820151816000015560208201518160010190816200025c919062000665565b50604082015181600201556060820151816003015560808201518160040160006101000a81548160ff021916908360018111156200029f576200029e620003c6565b5b021790555060a0820151816005019081620002bb919062000665565b5060c0820151816006019081620002d3919062000665565b5060e0820151816007019081620002eb919062000665565b509050506001547faebcea47ce0f2ece1a1939221d9b40c036b7a410ff015f8227d3d0415ec9e537888888888888886040516200032f97969594939291906200083d565b60405180910390a250505050505050565b7f4e487b7100000000000000000000000000000000000000000000000000000000600052601160045260246000fd5b6000819050919050565b600062000386826200036f565b91507fffffffffffffffffffffffffffffffffffffffffffffffffffffffffffffffff8203620003bb57620003ba62000340565b5b600182019050919050565b7f4e487b7100000000000000000000000000000000000000000000000000000000600052602160045260246000fd5b600081519050919050565b7f4e487b7100000000000000000000000000000000000000000000000000000000600052604160045260246000fd5b7f4e487b7100000000000000000000000000000000000000000000000000000000600052602260045260246000fd5b600060028204905060018216806200047757607f821691505b6020821081036200048d576200048c6200042f565b5b50919050565b60008190508160005260206000209050919050565b60006020601f8301049050919050565b600082821b905092915050565b600060088302620004f77fffffffffffffffffffffffffffffffffffffffffffffffffffffffffffffffff82620004b8565b620005038683620004b8565b95508019841693508086168417925050509392505050565b6000819050919050565b600062000546620005406200053a846200036f565b6200051b565b6200036f565b9050919050565b6000819050919050565b620005628362000525565b6200057a62000571826200054d565b848454620004c5565b825550505050565b600090565b6200059162000582565b6200059e81848462000557565b505050565b5b81811015620005c657620005ba60008262000587565b600181019050620005a4565b5050565b601f8211156200061557620005df8162000493565b620005ea84620004a8565b81016020851015620005fa578190505b620006126200060985620004a8565b830182620005a3565b50505b505050565b600082821c905092915050565b60006200063a600019846008026200061a565b1980831691505092915050565b600062000655838362000627565b9150826002028217905092915050565b6200067082620003f5565b67ffffffffffffffff8111156200068c576200068b62000400565b5b6200069882546200045e565b620006a5828285620005ca565b600060209050601f831160018114620006dd5760008415620006c8578287015190505b620006d4858262000647565b86555062000744565b601f198416620006ed8662000493565b60005b828110156200071757848901518255600182019150602085019450602081019050620006f0565b8683101562000737578489015162000733601f89168262000627565b8355505b6001600288020188555050505b505050505050565b600082825260208201905092915050565b60005b838110156200077d57808201518184015260208101905062000760565b60008484015250505050565b6000601f19601f8301169050919050565b6000620007a782620003f5565b620007b381856200074c565b9350620007c58185602086016200075d565b620007d08162000789565b840191505092915050565b620007e6816200036f565b82525050565b600281106200080057620007ff620003c6565b5b50565b60008190506200081382620007ec565b919050565b6000620008258262000803565b9050919050565b620008378162000818565b82525050565b600060e082019050818103600083015262000859818a6200079a565b90506200086a6020830189620007db565b620008796040830188620007db565b6200088860608301876200082c565b81810360808301526200089c81866200079a565b905081810360a0830152620008b281856200079a565b905081810360c0830152620008c881846200079a565b905098975050505050505050565b61137780620008e66000396000f3fe608060405234801561001057600080fd5b50600436106100625760003560e01c8063418f500414610067578063428ec3fb14610085578063a226547d146100a1578063a81df708146100bd578063a87d942c146100ed578063b68f7ec71461010b575b600080fd5b61006f610142565b60405161007c91906108d3565b60405180910390f35b61009f600480360381019061009a9190610a99565b610148565b005b6100bb60048036038101906100b69190610bab565b6102ba565b005b6100d760048036038101906100d29190610bd8565b6102fb565b6040516100e491906108d3565b60405180910390f35b6100f56103c8565b6040516101029190610ccc565b60405180910390f35b61012560048036038101906101209190610bab565b610622565b604051610139989796959493929190610dde565b60405180910390f35b60015481565b6001600081548092919061015b90610ea7565b9190505550604051806101000160405280600154815260200188815260200187815260200186815260200185600181111561019957610198610d67565b5b81526020018481526020018381526020018281525060008060015481526020019081526020016000206000820151816000015560208201518160010190816101e191906110fb565b50604082015181600201556060820151816003015560808201518160040160006101000a81548160ff0219169083600181111561022157610220610d67565b5b021790555060a082015181600501908161023b91906110fb565b5060c082015181600601908161025191906110fb565b5060e082015181600701908161026791906110fb565b509050506001547faebcea47ce0f2ece1a1939221d9b40c036b7a410ff015f8227d3d0415ec9e537888888888888886040516102a997969594939291906111cd565b60405180910390a250505050505050565b600160008083815260200190815260200160002060040160006101000a81548160ff021916908360018111156102f3576102f2610d67565b5b021790555050565b600080600090506000600190505b60015481116103be57838051906020012060008083815260200190815260200160002060060160405161033c91906112fb565b60405180910390201480156103975750600060018111156103605761035f610d67565b5b60008083815260200190815260200160002060040160009054906101000a900460ff16600181111561039557610394610d67565b5b145b156103ab5781806103a790610ea7565b9250505b80806103b690610ea7565b915050610309565b5080915050919050565b6103d0610897565b60006040518061010001604052806040518060400160405280600581526020017f4468616b6100000000000000000000000000000000000000000000000000000081525081526020016040518060400160405280600a81526020017f43686174746f6772616d0000000000000000000000000000000000000000000081525081526020016040518060400160405280600881526020017f52616a736861686900000000000000000000000000000000000000000000000081525081526020016040518060400160405280600681526020017f4b68756c6e61000000000000000000000000000000000000000000000000000081525081526020016040518060400160405280600781526020017f4261726973616c0000000000000000000000000000000000000000000000000081525081526020016040518060400160405280600681526020017f53796c686574000000000000000000000000000000000000000000000000000081525081526020016040518060400160405280600781526020017f52616e677075720000000000000000000000000000000000000000000000000081525081526020016040518060400160405280600a81526020017f4d796d656e73696e67680000000000000000000000000000000000000000000081525081525090506105be610897565b60005b6008811015610619576105ea8382600881106105e0576105df611312565b5b60200201516102fb565b8282600881106105fd576105fc611312565b5b602002018181525050808061061190610ea7565b9150506105c1565b50809250505090565b600060205280600052604060002060009150905080600001549080600101805461064b90610f1e565b80601f016020809104026020016040519081016040528092919081815260200182805461067790610f1e565b80156106c45780601f10610699576101008083540402835291602001916106c4565b820191906000526020600020905b8154815290600101906020018083116106a757829003601f168201915b5050505050908060020154908060030154908060040160009054906101000a900460ff16908060050180546106f890610f1e565b80601f016020809104026020016040519081016040528092919081815260200182805461072490610f1e565b80156107715780601f1061074657610100808354040283529160200191610771565b820191906000526020600020905b81548152906001019060200180831161075457829003601f168201915b50505050509080600601805461078690610f1e565b80601f01602080910402602001604051908101604052809291908181526020018280546107b290610f1e565b80156107ff5780601f106107d4576101008083540402835291602001916107ff565b820191906000526020600020905b8154815290600101906020018083116107e257829003601f168201915b50505050509080600701805461081490610f1e565b80601f016020809104026020016040519081016040528092919081815260200182805461084090610f1e565b801561088d5780601f106108625761010080835404028352916020019161088d565b820191906000526020600020905b81548152906001019060200180831161087057829003601f168201915b5050505050905088565b604051806101000160405280600890602082028036833780820191505090505090565b6000819050919050565b6108cd816108ba565b82525050565b60006020820190506108e860008301846108c4565b92915050565b6000604051905090565b600080fd5b600080fd5b600080fd5b600080fd5b6000601f19601f8301169050919050565b7f4e487b7100000000000000000000000000000000000000000000000000000000600052604160045260246000fd5b6109558261090c565b810181811067ffffffffffffffff821117156109745761097361091d565b5b80604052505050565b60006109876108ee565b9050610993828261094c565b919050565b600067ffffffffffffffff8211156109b3576109b261091d565b5b6109bc8261090c565b9050602081019050919050565b82818337600083830152505050565b60006109eb6109e684610998565b61097d565b905082815260208101848484011115610a0757610a06610907565b5b610a128482856109c9565b509392505050565b600082601f830112610a2f57610a2e610902565b5b8135610a3f8482602086016109d8565b91505092915050565b610a51816108ba565b8114610a5c57600080fd5b50565b600081359050610a6e81610a48565b92915050565b60028110610a8157600080fd5b50565b600081359050610a9381610a74565b92915050565b600080600080600080600060e0888a031215610ab857610ab76108f8565b5b600088013567ffffffffffffffff811115610ad657610ad56108fd565b5b610ae28a828b01610a1a565b9750506020610af38a828b01610a5f565b9650506040610b048a828b01610a5f565b9550506060610b158a828b01610a84565b945050608088013567ffffffffffffffff811115610b3657610b356108fd565b5b610b428a828b01610a1a565b93505060a088013567ffffffffffffffff811115610b6357610b626108fd565b5b610b6f8a828b01610a1a565b92505060c088013567ffffffffffffffff811115610b9057610b8f6108fd565b5b610b9c8a828b01610a1a565b91505092959891949750929550565b600060208284031215610bc157610bc06108f8565b5b6000610bcf84828501610a5f565b91505092915050565b600060208284031215610bee57610bed6108f8565b5b600082013567ffffffffffffffff811115610c0c57610c0b6108fd565b5b610c1884828501610a1a565b91505092915050565b600060089050919050565b600081905092915050565b6000819050919050565b610c4a816108ba565b82525050565b6000610c5c8383610c41565b60208301905092915050565b6000602082019050919050565b610c7e81610c21565b610c888184610c2c565b9250610c9382610c37565b8060005b83811015610cc4578151610cab8782610c50565b9650610cb683610c68565b925050600181019050610c97565b505050505050565b600061010082019050610ce26000830184610c75565b92915050565b600081519050919050565b600082825260208201905092915050565b60005b83811015610d22578082015181840152602081019050610d07565b60008484015250505050565b6000610d3982610ce8565b610d438185610cf3565b9350610d53818560208601610d04565b610d5c8161090c565b840191505092915050565b7f4e487b7100000000000000000000000000000000000000000000000000000000600052602160045260246000fd5b60028110610da757610da6610d67565b5b50565b6000819050610db882610d96565b919050565b6000610dc882610daa565b9050919050565b610dd881610dbd565b82525050565b600061010082019050610df4600083018b6108c4565b8181036020830152610e06818a610d2e565b9050610e1560408301896108c4565b610e2260608301886108c4565b610e2f6080830187610dcf565b81810360a0830152610e418186610d2e565b905081810360c0830152610e558185610d2e565b905081810360e0830152610e698184610d2e565b90509998505050505050505050565b7f4e487b7100000000000000000000000000000000000000000000000000000000600052601160045260246000fd5b6000610eb2826108ba565b91507fffffffffffffffffffffffffffffffffffffffffffffffffffffffffffffffff8203610ee457610ee3610e78565b5b600182019050919050565b7f4e487b7100000000000000000000000000000000000000000000000000000000600052602260045260246000fd5b60006002820490506001821680610f3657607f821691505b602082108103610f4957610f48610eef565b5b50919050565b60008190508160005260206000209050919050565b60006020601f8301049050919050565b600082821b905092915050565b600060088302610fb17fffffffffffffffffffffffffffffffffffffffffffffffffffffffffffffffff82610f74565b610fbb8683610f74565b95508019841693508086168417925050509392505050565b6000819050919050565b6000610ff8610ff3610fee846108ba565b610fd3565b6108ba565b9050919050565b6000819050919050565b61101283610fdd565b61102661101e82610fff565b848454610f81565b825550505050565b600090565b61103b61102e565b611046818484611009565b505050565b5b8181101561106a5761105f600082611033565b60018101905061104c565b5050565b601f8211156110af5761108081610f4f565b61108984610f64565b81016020851015611098578190505b6110ac6110a485610f64565b83018261104b565b50505b505050565b600082821c905092915050565b60006110d2600019846008026110b4565b1980831691505092915050565b60006110eb83836110c1565b9150826002028217905092915050565b61110482610ce8565b67ffffffffffffffff81111561111d5761111c61091d565b5b6111278254610f1e565b61113282828561106e565b600060209050601f8311600181146111655760008415611153578287015190505b61115d85826110df565b8655506111c5565b601f19841661117386610f4f565b60005b8281101561119b57848901518255600182019150602085019450602081019050611176565b868310156111b857848901516111b4601f8916826110c1565b8355505b6001600288020188555050505b505050505050565b600060e08201905081810360008301526111e7818a610d2e565b90506111f660208301896108c4565b61120360408301886108c4565b6112106060830187610dcf565b81810360808301526112228186610d2e565b905081810360a08301526112368185610d2e565b905081810360c083015261124a8184610d2e565b905098975050505050505050565b600081905092915050565b60008190508160005260206000209050919050565b6000815461128581610f1e565b61128f8186611258565b945060018216600081146112aa57600181146112bf576112f2565b60ff19831686528115158202860193506112f2565b6112c885611263565b60005b838110156112ea578154818901526001820191506020810190506112cb565b838801955050505b50505092915050565b60006113078284611278565b915081905092915050565b7f4e487b7100000000000000000000000000000000000000000000000000000000600052603260045260246000fdfea264697066735822122022beb5f475915648c09415d964dbe5f9e101c85ad202306307c51956a8750e8464736f6c634300081000334a6f686e20446f65206973206d697373696e672073696e636520326e64204a616e7561727920323032314a616e6520446f65206973206d697373696e672073696e636520326e64204a616e756172792032303231",
  "immutableReferences": {},
  "source": "// SPDX-License-Identifier: GPL-3.0\npragma solidity >=0.7.0 <0.9.0;\n\n\ncontract MissingDiaries {\n\n    enum Status { Missing, Found }\n\n    struct MissingPerson {\n        uint id;\n        string name;\n        uint age;\n        uint height;\n        Status status;\n        string description;\n        string division;\n        string relative;\n    }\n\n    mapping(uint => MissingPerson) public missingPeople;\n\n    uint public missingPeopleCount;\n\n    event missingPersonAdded(uint indexed _missingPersonId, string _name, uint _age, uint _height, Status _status, string _description, string _division, string _relative);\n    event statusToggled(uint indexed _missingPersonId, Status _newStatus);\n\n    constructor() {\n        addMissingPerson(\"John Doe\", 25, 180, Status.Found, \"John Doe is missing since 2nd January 2021\", \"Dhaka\", \"Jane Doe\");\n        addMissingPerson(\"Jane Doe\", 20, 160, Status.Missing, \"Jane Doe is missing since 2nd January 2021\", \"Dhaka\", \"John Doe\");\n    }\n\n    function addMissingPerson(string memory _name, uint _age, uint _height, Status _status, string memory _description, string memory _division, string memory _relative) public {\n        missingPeopleCount++;\n        missingPeople[missingPeopleCount] = MissingPerson(missingPeopleCount, _name, _age, _height, _status, _description, _division, _relative);\n        emit missingPersonAdded(missingPeopleCount, _name, _age, _height, _status, _description, _division, _relative);\n    }\n\n    function foundPerson(uint _id) public {\n        // msg.sender;\n        missingPeople[_id].status = Status.Found;\n    }\n\n    function getCount() public view returns (uint[8] memory) {\n        string[8] memory districts = [\"Dhaka\", \"Chattogram\", \"Rajshahi\", \"Khulna\", \"Barisal\", \"Sylhet\", \"Rangpur\", \"Mymensingh\"];\n        uint[8] memory result;\n        for (uint i = 0; i < 8; i++) {\n            result[i] = getCountByDistrict(districts[i]);\n        }\n        return result;\n    }\n\n    function getCountByDistrict(string memory _district) public view returns (uint) {\n        uint counter = 0;\n        for (uint i = 1; i <= missingPeopleCount; i++) {\n            if ((keccak256(bytes(missingPeople[i].division)) == keccak256(bytes(_district))) && (missingPeople[i].status == Status.Missing)) {\n                counter++;\n            }\n        }\n        return counter;\n    }\n\n}",
  "sourcePath": "/home/roote/Desktop/election/contracts/MissingDiaries.sol",
  "compiler": {
    "name": "solc",
    "version": "0.8.16+commit.07a7930e.Emscripten.clang"
  },
  "schemaVersion": "3.4.16",
  "updatedAt": "2024-04-01T13:26:17.640Z",
  "devdoc": {
    "kind": "dev",
    "methods": {},
    "version": 1
  },
  "userdoc": {
    "kind": "user",
    "methods": {},
    "version": 1
  }
}