{
  "contractName": "MissingDiaries",
  "abi": [
    {
      "inputs": [],
      "stateMutability": "nonpayable",
      "type": "constructor"
    },
    {
      "anonymous": false,
      "inputs": [
        {
          "indexed": true,
          "internalType": "uint256",
          "name": "_missingPersonId",
          "type": "uint256"
        },
        {
          "indexed": false,
          "internalType": "string",
          "name": "_name",
          "type": "string"
        },
        {
          "indexed": false,
          "internalType": "uint256",
          "name": "_age",
          "type": "uint256"
        },
        {
          "indexed": false,
          "internalType": "uint256",
          "name": "_height",
          "type": "uint256"
        },
        {
          "indexed": false,
          "internalType": "enum MissingDiaries.Status",
          "name": "_status",
          "type": "uint8"
        },
        {
          "indexed": false,
          "internalType": "string",
          "name": "_description",
          "type": "string"
        },
        {
          "indexed": false,
          "internalType": "string",
          "name": "_division",
          "type": "string"
        },
        {
          "indexed": false,
          "internalType": "string",
          "name": "_relative",
          "type": "string"
        }
      ],
      "name": "missingPersonAdded",
      "type": "event"
    },
    {
      "inputs": [
        {
          "internalType": "uint256",
          "name": "",
          "type": "uint256"
        }
      ],
      "name": "missingPeople",
      "outputs": [
        {
          "internalType": "uint256",
          "name": "id",
          "type": "uint256"
        },
        {
          "internalType": "string",
          "name": "name",
          "type": "string"
        },
        {
          "internalType": "uint256",
          "name": "age",
          "type": "uint256"
        },
        {
          "internalType": "uint256",
          "name": "height",
          "type": "uint256"
        },
        {
          "internalType": "enum MissingDiaries.Status",
          "name": "status",
          "type": "uint8"
        },
        {
          "internalType": "string",
          "name": "description",
          "type": "string"
        },
        {
          "internalType": "string",
          "name": "division",
          "type": "string"
        },
        {
          "internalType": "string",
          "name": "relative",
          "type": "string"
        }
      ],
      "stateMutability": "view",
      "type": "function",
      "constant": true
    },
    {
      "inputs": [],
      "name": "missingPeopleCount",
      "outputs": [
        {
          "internalType": "uint256",
          "name": "",
          "type": "uint256"
        }
      ],
      "stateMutability": "view",
      "type": "function",
      "constant": true
    },
    {
      "inputs": [
        {
          "internalType": "string",
          "name": "_name",
          "type": "string"
        },
        {
          "internalType": "uint256",
          "name": "_age",
          "type": "uint256"
        },
        {
          "internalType": "uint256",
          "name": "_height",
          "type": "uint256"
        },
        {
          "internalType": "enum MissingDiaries.Status",
          "name": "_status",
          "type": "uint8"
        },
        {
          "internalType": "string",
          "name": "_description",
          "type": "string"
        },
        {
          "internalType": "string",
          "name": "_division",
          "type": "string"
        },
        {
          "internalType": "string",
          "name": "_relative",
          "type": "string"
        }
      ],
      "name": "addMissingPerson",
      "outputs": [],
      "stateMutability": "nonpayable",
      "type": "function"
    }
  ],
  "bytecode": "0x60806040523480156200001157600080fd5b50620000e46040518060400160405280600881526020017f4a6f686e20446f65000000000000000000000000000000000000000000000000815250601960b460016040518060600160405280602a81526020016200164e602a91396040518060400160405280600581526020017f4468616b610000000000000000000000000000000000000000000000000000008152506040518060400160405280600881526020017f4a616e6520446f65000000000000000000000000000000000000000000000000815250620001bc60201b60201c565b620001b66040518060400160405280600881526020017f4a616e6520446f65000000000000000000000000000000000000000000000000815250601460a060006040518060600160405280602a815260200162001678602a91396040518060400160405280600581526020017f4468616b610000000000000000000000000000000000000000000000000000008152506040518060400160405280600881526020017f4a6f686e20446f65000000000000000000000000000000000000000000000000815250620001bc60201b60201c565b620008d6565b60016000815480929190620001d19062000379565b91905055506040518061010001604052806001548152602001888152602001878152602001868152602001856001811115620002125762000211620003c6565b5b81526020018481526020018381526020018281525060008060015481526020019081526020016000206000820151816000015560208201518160010190816200025c919062000665565b50604082015181600201556060820151816003015560808201518160040160006101000a81548160ff021916908360018111156200029f576200029e620003c6565b5b021790555060a0820151816005019081620002bb919062000665565b5060c0820151816006019081620002d3919062000665565b5060e0820151816007019081620002eb919062000665565b509050506001547faebcea47ce0f2ece1a1939221d9b40c036b7a410ff015f8227d3d0415ec9e537888888888888886040516200032f97969594939291906200083d565b60405180910390a250505050505050565b7f4e487b7100000000000000000000000000000000000000000000000000000000600052601160045260246000fd5b6000819050919050565b600062000386826200036f565b91507fffffffffffffffffffffffffffffffffffffffffffffffffffffffffffffffff8203620003bb57620003ba62000340565b5b600182019050919050565b7f4e487b7100000000000000000000000000000000000000000000000000000000600052602160045260246000fd5b600081519050919050565b7f4e487b7100000000000000000000000000000000000000000000000000000000600052604160045260246000fd5b7f4e487b7100000000000000000000000000000000000000000000000000000000600052602260045260246000fd5b600060028204905060018216806200047757607f821691505b6020821081036200048d576200048c6200042f565b5b50919050565b60008190508160005260206000209050919050565b60006020601f8301049050919050565b600082821b905092915050565b600060088302620004f77fffffffffffffffffffffffffffffffffffffffffffffffffffffffffffffffff82620004b8565b620005038683620004b8565b95508019841693508086168417925050509392505050565b6000819050919050565b600062000546620005406200053a846200036f565b6200051b565b6200036f565b9050919050565b6000819050919050565b620005628362000525565b6200057a62000571826200054d565b848454620004c5565b825550505050565b600090565b6200059162000582565b6200059e81848462000557565b505050565b5b81811015620005c657620005ba60008262000587565b600181019050620005a4565b5050565b601f8211156200061557620005df8162000493565b620005ea84620004a8565b81016020851015620005fa578190505b620006126200060985620004a8565b830182620005a3565b50505b505050565b600082821c905092915050565b60006200063a600019846008026200061a565b1980831691505092915050565b600062000655838362000627565b9150826002028217905092915050565b6200067082620003f5565b67ffffffffffffffff8111156200068c576200068b62000400565b5b6200069882546200045e565b620006a5828285620005ca565b600060209050601f831160018114620006dd5760008415620006c8578287015190505b620006d4858262000647565b86555062000744565b601f198416620006ed8662000493565b60005b828110156200071757848901518255600182019150602085019450602081019050620006f0565b8683101562000737578489015162000733601f89168262000627565b8355505b6001600288020188555050505b505050505050565b600082825260208201905092915050565b60005b838110156200077d57808201518184015260208101905062000760565b60008484015250505050565b6000601f19601f8301169050919050565b6000620007a782620003f5565b620007b381856200074c565b9350620007c58185602086016200075d565b620007d08162000789565b840191505092915050565b620007e6816200036f565b82525050565b600281106200080057620007ff620003c6565b5b50565b60008190506200081382620007ec565b919050565b6000620008258262000803565b9050919050565b620008378162000818565b82525050565b600060e082019050818103600083015262000859818a6200079a565b90506200086a6020830189620007db565b620008796040830188620007db565b6200088860608301876200082c565b81810360808301526200089c81866200079a565b905081810360a0830152620008b281856200079a565b905081810360c0830152620008c881846200079a565b905098975050505050505050565b610d6880620008e66000396000f3fe608060405234801561001057600080fd5b50600436106100415760003560e01c8063418f500414610046578063428ec3fb14610064578063b68f7ec714610080575b600080fd5b61004e6100b7565b60405161005b91906104bd565b60405180910390f35b61007e60048036038101906100799190610683565b6100bd565b005b61009a60048036038101906100959190610795565b61022f565b6040516100ae9897969594939291906108b8565b60405180910390f35b60015481565b600160008154809291906100d090610981565b9190505550604051806101000160405280600154815260200188815260200187815260200186815260200185600181111561010e5761010d610841565b5b81526020018481526020018381526020018281525060008060015481526020019081526020016000206000820151816000015560208201518160010190816101569190610bd5565b50604082015181600201556060820151816003015560808201518160040160006101000a81548160ff0219169083600181111561019657610195610841565b5b021790555060a08201518160050190816101b09190610bd5565b5060c08201518160060190816101c69190610bd5565b5060e08201518160070190816101dc9190610bd5565b509050506001547faebcea47ce0f2ece1a1939221d9b40c036b7a410ff015f8227d3d0415ec9e5378888888888888860405161021e9796959493929190610ca7565b60405180910390a250505050505050565b6000602052806000526040600020600091509050806000015490806001018054610258906109f8565b80601f0160208091040260200160405190810160405280929190818152602001828054610284906109f8565b80156102d15780601f106102a6576101008083540402835291602001916102d1565b820191906000526020600020905b8154815290600101906020018083116102b457829003601f168201915b5050505050908060020154908060030154908060040160009054906101000a900460ff1690806005018054610305906109f8565b80601f0160208091040260200160405190810160405280929190818152602001828054610331906109f8565b801561037e5780601f106103535761010080835404028352916020019161037e565b820191906000526020600020905b81548152906001019060200180831161036157829003601f168201915b505050505090806006018054610393906109f8565b80601f01602080910402602001604051908101604052809291908181526020018280546103bf906109f8565b801561040c5780601f106103e15761010080835404028352916020019161040c565b820191906000526020600020905b8154815290600101906020018083116103ef57829003601f168201915b505050505090806007018054610421906109f8565b80601f016020809104026020016040519081016040528092919081815260200182805461044d906109f8565b801561049a5780601f1061046f5761010080835404028352916020019161049a565b820191906000526020600020905b81548152906001019060200180831161047d57829003601f168201915b5050505050905088565b6000819050919050565b6104b7816104a4565b82525050565b60006020820190506104d260008301846104ae565b92915050565b6000604051905090565b600080fd5b600080fd5b600080fd5b600080fd5b6000601f19601f8301169050919050565b7f4e487b7100000000000000000000000000000000000000000000000000000000600052604160045260246000fd5b61053f826104f6565b810181811067ffffffffffffffff8211171561055e5761055d610507565b5b80604052505050565b60006105716104d8565b905061057d8282610536565b919050565b600067ffffffffffffffff82111561059d5761059c610507565b5b6105a6826104f6565b9050602081019050919050565b82818337600083830152505050565b60006105d56105d084610582565b610567565b9050828152602081018484840111156105f1576105f06104f1565b5b6105fc8482856105b3565b509392505050565b600082601f830112610619576106186104ec565b5b81356106298482602086016105c2565b91505092915050565b61063b816104a4565b811461064657600080fd5b50565b60008135905061065881610632565b92915050565b6002811061066b57600080fd5b50565b60008135905061067d8161065e565b92915050565b600080600080600080600060e0888a0312156106a2576106a16104e2565b5b600088013567ffffffffffffffff8111156106c0576106bf6104e7565b5b6106cc8a828b01610604565b97505060206106dd8a828b01610649565b96505060406106ee8a828b01610649565b95505060606106ff8a828b0161066e565b945050608088013567ffffffffffffffff8111156107205761071f6104e7565b5b61072c8a828b01610604565b93505060a088013567ffffffffffffffff81111561074d5761074c6104e7565b5b6107598a828b01610604565b92505060c088013567ffffffffffffffff81111561077a576107796104e7565b5b6107868a828b01610604565b91505092959891949750929550565b6000602082840312156107ab576107aa6104e2565b5b60006107b984828501610649565b91505092915050565b600081519050919050565b600082825260208201905092915050565b60005b838110156107fc5780820151818401526020810190506107e1565b60008484015250505050565b6000610813826107c2565b61081d81856107cd565b935061082d8185602086016107de565b610836816104f6565b840191505092915050565b7f4e487b7100000000000000000000000000000000000000000000000000000000600052602160045260246000fd5b6002811061088157610880610841565b5b50565b600081905061089282610870565b919050565b60006108a282610884565b9050919050565b6108b281610897565b82525050565b6000610100820190506108ce600083018b6104ae565b81810360208301526108e0818a610808565b90506108ef60408301896104ae565b6108fc60608301886104ae565b61090960808301876108a9565b81810360a083015261091b8186610808565b905081810360c083015261092f8185610808565b905081810360e08301526109438184610808565b90509998505050505050505050565b7f4e487b7100000000000000000000000000000000000000000000000000000000600052601160045260246000fd5b600061098c826104a4565b91507fffffffffffffffffffffffffffffffffffffffffffffffffffffffffffffffff82036109be576109bd610952565b5b600182019050919050565b7f4e487b7100000000000000000000000000000000000000000000000000000000600052602260045260246000fd5b60006002820490506001821680610a1057607f821691505b602082108103610a2357610a226109c9565b5b50919050565b60008190508160005260206000209050919050565b60006020601f8301049050919050565b600082821b905092915050565b600060088302610a8b7fffffffffffffffffffffffffffffffffffffffffffffffffffffffffffffffff82610a4e565b610a958683610a4e565b95508019841693508086168417925050509392505050565b6000819050919050565b6000610ad2610acd610ac8846104a4565b610aad565b6104a4565b9050919050565b6000819050919050565b610aec83610ab7565b610b00610af882610ad9565b848454610a5b565b825550505050565b600090565b610b15610b08565b610b20818484610ae3565b505050565b5b81811015610b4457610b39600082610b0d565b600181019050610b26565b5050565b601f821115610b8957610b5a81610a29565b610b6384610a3e565b81016020851015610b72578190505b610b86610b7e85610a3e565b830182610b25565b50505b505050565b600082821c905092915050565b6000610bac60001984600802610b8e565b1980831691505092915050565b6000610bc58383610b9b565b9150826002028217905092915050565b610bde826107c2565b67ffffffffffffffff811115610bf757610bf6610507565b5b610c0182546109f8565b610c0c828285610b48565b600060209050601f831160018114610c3f5760008415610c2d578287015190505b610c378582610bb9565b865550610c9f565b601f198416610c4d86610a29565b60005b82811015610c7557848901518255600182019150602085019450602081019050610c50565b86831015610c925784890151610c8e601f891682610b9b565b8355505b6001600288020188555050505b505050505050565b600060e0820190508181036000830152610cc1818a610808565b9050610cd060208301896104ae565b610cdd60408301886104ae565b610cea60608301876108a9565b8181036080830152610cfc8186610808565b905081810360a0830152610d108185610808565b905081810360c0830152610d248184610808565b90509897505050505050505056fea26469706673582212201c21b47e9efc9496be5a7f826921a8df75eff7dffd0e587b4e4827a78f9afcb464736f6c634300081000334a6f686e20446f65206973206d697373696e672073696e636520326e64204a616e7561727920323032314a616e6520446f65206973206d697373696e672073696e636520326e64204a616e756172792032303231",
  "immutableReferences": {},
  "source": "// SPDX-License-Identifier: GPL-3.0\npragma solidity >=0.7.0 <0.9.0;\n\n\ncontract MissingDiaries {\n\n    enum Status { Missing, Found }\n\n    struct MissingPerson {\n        uint id;\n        string name;\n        uint age;\n        uint height;\n        Status status;\n        string description;\n        string division;\n        string relative;\n    }\n\n    mapping(uint => MissingPerson) public missingPeople;\n\n    uint public missingPeopleCount;\n\n    event missingPersonAdded(uint indexed _missingPersonId, string _name, uint _age, uint _height, Status _status, string _description, string _division, string _relative);\n\n    constructor() {\n        addMissingPerson(\"John Doe\", 25, 180, Status.Found, \"John Doe is missing since 2nd January 2021\", \"Dhaka\", \"Jane Doe\");\n        addMissingPerson(\"Jane Doe\", 20, 160, Status.Missing, \"Jane Doe is missing since 2nd January 2021\", \"Dhaka\", \"John Doe\");\n    }\n\n    function addMissingPerson(string memory _name, uint _age, uint _height, Status _status, string memory _description, string memory _division, string memory _relative) public {\n        missingPeopleCount++;\n        missingPeople[missingPeopleCount] = MissingPerson(missingPeopleCount, _name, _age, _height, _status, _description, _division, _relative);\n        emit missingPersonAdded(missingPeopleCount, _name, _age, _height, _status, _description, _division, _relative);\n    }\n\n    // function getMissingPerson(uint _id) public view returns (uint, string memory, uint, uint, Status, string memory, string memory, string memory) {\n    //     return (_id, missingPeople[_id].name, missingPeople[_id].age, missingPeople[_id].height, missingPeople[_id].status, missingPeople[_id].description, missingPeople[_id].division, missingPeople[_id].relative);\n    // }\n\n\n//    event votedEvent( uint indexed _candidateId );\n//    // model a candidate\n//    struct Candidate {\n//        uint id;\n//        string name;\n//        uint voteCount;\n//    }\n//    // Store accounts that have voted\n//    mapping( address => bool ) public voters;\n\n\n//    // Read/write candidates\n//    mapping( uint => Candidate ) public candidates;\n\n\n//    // store candidates count\n//    uint public candidatesCount;\n\n\n//    // Constructor\n//    constructor() {\n//        addCandidate( \"Candidate 1\" );\n//        addCandidate( \"Candidate 2\" );\n//    }\n\n\n//    // adding candidates\n//    function addCandidate( string memory _name ) private {\n//        candidatesCount++;\n//        candidates[ candidatesCount ] = Candidate( candidatesCount, _name, 0 );\n//    }\n\n\n//    // cast vote\n//    function vote( uint _candidateId ) public {\n//        // require that the current voter haven't voted before\n//        require( !voters[ msg.sender ]);\n\n\n//        // candidate should be valid\n//        require( _candidateId > 0 && _candidateId <= candidatesCount );\n\n\n//        // record voters vote\n//        voters[ msg.sender ] = true;\n\n\n//        // update candidates vote count\n//        candidates[ _candidateId ].voteCount++;\n//        emit votedEvent( _candidateId );\n//               }\n}",
  "sourcePath": "/home/roote/Desktop/election/contracts/MissingDiaries.sol",
  "compiler": {
    "name": "solc",
    "version": "0.8.16+commit.07a7930e.Emscripten.clang"
  },
  "schemaVersion": "3.4.16",
  "updatedAt": "2023-11-30T12:35:36.022Z",
  "networkType": "ethereum",
  "devdoc": {
    "kind": "dev",
    "methods": {},
    "version": 1
  },
  "userdoc": {
    "kind": "user",
    "methods": {},
    "version": 1
  }
}