{
  "contractName": "PatientManagement",
  "abi": [
    {
      "inputs": [],
      "stateMutability": "nonpayable",
      "type": "constructor"
    },
    {
      "inputs": [
        {
          "internalType": "address",
          "name": "",
          "type": "address"
        }
      ],
      "name": "user",
      "outputs": [
        {
          "internalType": "uint256",
          "name": "id",
          "type": "uint256"
        },
        {
          "internalType": "uint256",
          "name": "age",
          "type": "uint256"
        },
        {
          "internalType": "string",
          "name": "gender",
          "type": "string"
        },
        {
          "internalType": "enum PatientManagement.Status",
          "name": "vaccine_status",
          "type": "uint8"
        },
        {
          "internalType": "string",
          "name": "district",
          "type": "string"
        },
        {
          "internalType": "string",
          "name": "symptom_details",
          "type": "string"
        },
        {
          "internalType": "bool",
          "name": "is_dead",
          "type": "bool"
        },
        {
          "internalType": "bool",
          "name": "is_admin",
          "type": "bool"
        }
      ],
      "stateMutability": "view",
      "type": "function",
      "constant": true
    },
    {
      "inputs": [],
      "name": "userCount",
      "outputs": [
        {
          "internalType": "uint256",
          "name": "",
          "type": "uint256"
        }
      ],
      "stateMutability": "view",
      "type": "function",
      "constant": true
    },
    {
      "inputs": [
        {
          "internalType": "uint256",
          "name": "_age",
          "type": "uint256"
        },
        {
          "internalType": "string",
          "name": "_gender",
          "type": "string"
        },
        {
          "internalType": "enum PatientManagement.Status",
          "name": "_vaccine_status",
          "type": "uint8"
        },
        {
          "internalType": "string",
          "name": "_district",
          "type": "string"
        },
        {
          "internalType": "string",
          "name": "_symptom_details",
          "type": "string"
        },
        {
          "internalType": "bool",
          "name": "_is_dead",
          "type": "bool"
        }
      ],
      "name": "addUser",
      "outputs": [],
      "stateMutability": "nonpayable",
      "type": "function"
    },
    {
      "inputs": [],
      "name": "checkAdmin",
      "outputs": [
        {
          "internalType": "bool",
          "name": "",
          "type": "bool"
        }
      ],
      "stateMutability": "view",
      "type": "function",
      "constant": true
    },
    {
      "inputs": [],
      "name": "setAdmin",
      "outputs": [],
      "stateMutability": "nonpayable",
      "type": "function"
    },
    {
      "inputs": [
        {
          "internalType": "address",
          "name": "_address",
          "type": "address"
        },
        {
          "internalType": "enum PatientManagement.Status",
          "name": "_vaccine_status",
          "type": "uint8"
        },
        {
          "internalType": "bool",
          "name": "_is_dead",
          "type": "bool"
        }
      ],
      "name": "updateUser",
      "outputs": [],
      "stateMutability": "nonpayable",
      "type": "function"
    }
  ],
  "bytecode": "0x60806040523480156200001157600080fd5b506000732c56a95c8102fc728f3938e22a5647ef59521f53905060405180610100016040528060008152602001600581526020016040518060400160405280600481526020017f6d616c650000000000000000000000000000000000000000000000000000000081525081526020016001600281111562000097576200009662000239565b5b81526020016040518060400160405280600681526020017f736467736467000000000000000000000000000000000000000000000000000081525081526020016040518060400160405280600681526020017f73646673646600000000000000000000000000000000000000000000000000008152508152602001600015158152602001600115158152506000808373ffffffffffffffffffffffffffffffffffffffff1673ffffffffffffffffffffffffffffffffffffffff168152602001908152602001600020600082015181600001556020820151816001015560408201518160020190816200018b9190620004e2565b5060608201518160030160006101000a81548160ff02191690836002811115620001ba57620001b962000239565b5b02179055506080820151816004019081620001d69190620004e2565b5060a0820151816005019081620001ee9190620004e2565b5060c08201518160060160006101000a81548160ff02191690831515021790555060e08201518160060160016101000a81548160ff02191690831515021790555090505050620005c9565b7f4e487b7100000000000000000000000000000000000000000000000000000000600052602160045260246000fd5b600081519050919050565b7f4e487b7100000000000000000000000000000000000000000000000000000000600052604160045260246000fd5b7f4e487b7100000000000000000000000000000000000000000000000000000000600052602260045260246000fd5b60006002820490506001821680620002ea57607f821691505b6020821081036200030057620002ff620002a2565b5b50919050565b60008190508160005260206000209050919050565b60006020601f8301049050919050565b600082821b905092915050565b6000600883026200036a7fffffffffffffffffffffffffffffffffffffffffffffffffffffffffffffffff826200032b565b6200037686836200032b565b95508019841693508086168417925050509392505050565b6000819050919050565b6000819050919050565b6000620003c3620003bd620003b7846200038e565b62000398565b6200038e565b9050919050565b6000819050919050565b620003df83620003a2565b620003f7620003ee82620003ca565b84845462000338565b825550505050565b600090565b6200040e620003ff565b6200041b818484620003d4565b505050565b5b8181101562000443576200043760008262000404565b60018101905062000421565b5050565b601f82111562000492576200045c8162000306565b62000467846200031b565b8101602085101562000477578190505b6200048f62000486856200031b565b83018262000420565b50505b505050565b600082821c905092915050565b6000620004b76000198460080262000497565b1980831691505092915050565b6000620004d28383620004a4565b9150826002028217905092915050565b620004ed8262000268565b67ffffffffffffffff81111562000509576200050862000273565b5b620005158254620002d1565b6200052282828562000447565b600060209050601f8311600181146200055a576000841562000545578287015190505b620005518582620004c4565b865550620005c1565b601f1984166200056a8662000306565b60005b8281101562000594578489015182556001820191506020850194506020810190506200056d565b86831015620005b45784890151620005b0601f891682620004a4565b8355505b6001600288020188555050505b505050505050565b610f8580620005d96000396000f3fe608060405234801561001057600080fd5b50600436106100625760003560e01c806307973ccf146100675780632cae2096146100855780636a3aa0551461008f57806381e7e20e146100ab578063ab150226146100e2578063e0137eac14610100575b600080fd5b61006f61011c565b60405161007c919061068a565b60405180910390f35b61008d610122565b005b6100a960048036038101906100a49190610888565b61017e565b005b6100c560048036038101906100c091906109c7565b6102f8565b6040516100d9989796959493929190610af9565b60405180910390f35b6100ea6104ff565b6040516100f79190610b8c565b60405180910390f35b61011a60048036038101906101159190610ba7565b610555565b005b60015481565b60016000803373ffffffffffffffffffffffffffffffffffffffff1673ffffffffffffffffffffffffffffffffffffffff16815260200190815260200160002060060160016101000a81548160ff021916908315150217905550565b6001600081548092919061019190610c29565b919050555060405180610100016040528060015481526020018781526020018681526020018560028111156101c9576101c8610a73565b5b81526020018481526020018381526020018215158152602001600015158152506000803373ffffffffffffffffffffffffffffffffffffffff1673ffffffffffffffffffffffffffffffffffffffff168152602001908152602001600020600082015181600001556020820151816001015560408201518160020190816102509190610e7d565b5060608201518160030160006101000a81548160ff0219169083600281111561027c5761027b610a73565b5b021790555060808201518160040190816102969190610e7d565b5060a08201518160050190816102ac9190610e7d565b5060c08201518160060160006101000a81548160ff02191690831515021790555060e08201518160060160016101000a81548160ff021916908315150217905550905050505050505050565b600060205280600052604060002060009150905080600001549080600101549080600201805461032790610ca0565b80601f016020809104026020016040519081016040528092919081815260200182805461035390610ca0565b80156103a05780601f10610375576101008083540402835291602001916103a0565b820191906000526020600020905b81548152906001019060200180831161038357829003601f168201915b5050505050908060030160009054906101000a900460ff16908060040180546103c890610ca0565b80601f01602080910402602001604051908101604052809291908181526020018280546103f490610ca0565b80156104415780601f1061041657610100808354040283529160200191610441565b820191906000526020600020905b81548152906001019060200180831161042457829003601f168201915b50505050509080600501805461045690610ca0565b80601f016020809104026020016040519081016040528092919081815260200182805461048290610ca0565b80156104cf5780601f106104a4576101008083540402835291602001916104cf565b820191906000526020600020905b8154815290600101906020018083116104b257829003601f168201915b5050505050908060060160009054906101000a900460ff16908060060160019054906101000a900460ff16905088565b60008060003373ffffffffffffffffffffffffffffffffffffffff1673ffffffffffffffffffffffffffffffffffffffff16815260200190815260200160002060060160019054906101000a900460ff16905090565b6000803373ffffffffffffffffffffffffffffffffffffffff1673ffffffffffffffffffffffffffffffffffffffff16815260200190815260200160002060060160019054906101000a900460ff161561066c57816000808573ffffffffffffffffffffffffffffffffffffffff1673ffffffffffffffffffffffffffffffffffffffff16815260200190815260200160002060030160006101000a81548160ff0219169083600281111561060d5761060c610a73565b5b0217905550806000808573ffffffffffffffffffffffffffffffffffffffff1673ffffffffffffffffffffffffffffffffffffffff16815260200190815260200160002060060160006101000a81548160ff0219169083151502179055505b505050565b6000819050919050565b61068481610671565b82525050565b600060208201905061069f600083018461067b565b92915050565b6000604051905090565b600080fd5b600080fd5b6106c281610671565b81146106cd57600080fd5b50565b6000813590506106df816106b9565b92915050565b600080fd5b600080fd5b6000601f19601f8301169050919050565b7f4e487b7100000000000000000000000000000000000000000000000000000000600052604160045260246000fd5b610738826106ef565b810181811067ffffffffffffffff8211171561075757610756610700565b5b80604052505050565b600061076a6106a5565b9050610776828261072f565b919050565b600067ffffffffffffffff82111561079657610795610700565b5b61079f826106ef565b9050602081019050919050565b82818337600083830152505050565b60006107ce6107c98461077b565b610760565b9050828152602081018484840111156107ea576107e96106ea565b5b6107f58482856107ac565b509392505050565b600082601f830112610812576108116106e5565b5b81356108228482602086016107bb565b91505092915050565b6003811061083857600080fd5b50565b60008135905061084a8161082b565b92915050565b60008115159050919050565b61086581610850565b811461087057600080fd5b50565b6000813590506108828161085c565b92915050565b60008060008060008060c087890312156108a5576108a46106af565b5b60006108b389828a016106d0565b965050602087013567ffffffffffffffff8111156108d4576108d36106b4565b5b6108e089828a016107fd565b95505060406108f189828a0161083b565b945050606087013567ffffffffffffffff811115610912576109116106b4565b5b61091e89828a016107fd565b935050608087013567ffffffffffffffff81111561093f5761093e6106b4565b5b61094b89828a016107fd565b92505060a061095c89828a01610873565b9150509295509295509295565b600073ffffffffffffffffffffffffffffffffffffffff82169050919050565b600061099482610969565b9050919050565b6109a481610989565b81146109af57600080fd5b50565b6000813590506109c18161099b565b92915050565b6000602082840312156109dd576109dc6106af565b5b60006109eb848285016109b2565b91505092915050565b600081519050919050565b600082825260208201905092915050565b60005b83811015610a2e578082015181840152602081019050610a13565b60008484015250505050565b6000610a45826109f4565b610a4f81856109ff565b9350610a5f818560208601610a10565b610a68816106ef565b840191505092915050565b7f4e487b7100000000000000000000000000000000000000000000000000000000600052602160045260246000fd5b60038110610ab357610ab2610a73565b5b50565b6000819050610ac482610aa2565b919050565b6000610ad482610ab6565b9050919050565b610ae481610ac9565b82525050565b610af381610850565b82525050565b600061010082019050610b0f600083018b61067b565b610b1c602083018a61067b565b8181036040830152610b2e8189610a3a565b9050610b3d6060830188610adb565b8181036080830152610b4f8187610a3a565b905081810360a0830152610b638186610a3a565b9050610b7260c0830185610aea565b610b7f60e0830184610aea565b9998505050505050505050565b6000602082019050610ba16000830184610aea565b92915050565b600080600060608486031215610bc057610bbf6106af565b5b6000610bce868287016109b2565b9350506020610bdf8682870161083b565b9250506040610bf086828701610873565b9150509250925092565b7f4e487b7100000000000000000000000000000000000000000000000000000000600052601160045260246000fd5b6000610c3482610671565b91507fffffffffffffffffffffffffffffffffffffffffffffffffffffffffffffffff8203610c6657610c65610bfa565b5b600182019050919050565b7f4e487b7100000000000000000000000000000000000000000000000000000000600052602260045260246000fd5b60006002820490506001821680610cb857607f821691505b602082108103610ccb57610cca610c71565b5b50919050565b60008190508160005260206000209050919050565b60006020601f8301049050919050565b600082821b905092915050565b600060088302610d337fffffffffffffffffffffffffffffffffffffffffffffffffffffffffffffffff82610cf6565b610d3d8683610cf6565b95508019841693508086168417925050509392505050565b6000819050919050565b6000610d7a610d75610d7084610671565b610d55565b610671565b9050919050565b6000819050919050565b610d9483610d5f565b610da8610da082610d81565b848454610d03565b825550505050565b600090565b610dbd610db0565b610dc8818484610d8b565b505050565b5b81811015610dec57610de1600082610db5565b600181019050610dce565b5050565b601f821115610e3157610e0281610cd1565b610e0b84610ce6565b81016020851015610e1a578190505b610e2e610e2685610ce6565b830182610dcd565b50505b505050565b600082821c905092915050565b6000610e5460001984600802610e36565b1980831691505092915050565b6000610e6d8383610e43565b9150826002028217905092915050565b610e86826109f4565b67ffffffffffffffff811115610e9f57610e9e610700565b5b610ea98254610ca0565b610eb4828285610df0565b600060209050601f831160018114610ee75760008415610ed5578287015190505b610edf8582610e61565b865550610f47565b601f198416610ef586610cd1565b60005b82811015610f1d57848901518255600182019150602085019450602081019050610ef8565b86831015610f3a5784890151610f36601f891682610e43565b8355505b6001600288020188555050505b50505050505056fea264697066735822122048aca98f2390556385b03229c67456466b8a0e79fb71092782763f962847af0264736f6c63430008100033",
  "immutableReferences": {},
  "source": "// SPDX-License-Identifier: GPL-3.0\npragma solidity >=0.7.0 <0.9.0;\n\ncontract PatientManagement {\n\n    enum Status {\n        not_vaccinated,\n        one_dose,\n        two_dose\n    }\n\n    struct User {\n        uint id;\n        uint age;\n        string gender;\n        Status vaccine_status;\n        string district;\n        string symptom_details;\n        bool is_dead;\n        bool is_admin;\n    }\n\n    mapping(address => User) public user;\n\n    uint public userCount;\n\n    constructor() {\n        address res = 0x2C56A95C8102FC728F3938e22A5647ef59521F53;\n        user[res] = User(0,5,\"male\",Status.one_dose,\"sdgsdg\",\"sdfsdf\",false,true);\n    }\n\n    function addUser(\n        uint _age,\n        string memory _gender,\n        Status _vaccine_status,\n        string memory _district,\n        string memory _symptom_details,\n        bool _is_dead\n    ) public {\n        userCount++;\n        user[msg.sender] = User(\n            userCount,\n            _age,\n            _gender,\n            _vaccine_status,\n            _district,\n            _symptom_details,\n            _is_dead,\n            false\n        );\n        \n    }\n\n    function checkAdmin() public view returns (bool){\n        return user[msg.sender].is_admin;\n    }\n\n    function setAdmin() public {\n        user[msg.sender].is_admin = true;\n    }\n\n    function updateUser(address _address, Status _vaccine_status, bool _is_dead) public {\n        if(user[msg.sender].is_admin){\n            user[_address].vaccine_status = _vaccine_status;\n            user[_address].is_dead = _is_dead;\n        }\n    }\n\n\n\n    // function updateStatus(uint _id, Status _status) public {\n    //     // msg.sender;\n    //     user[_id].vaccine_status = _status;\n    // }\n}\n",
  "sourcePath": "/home/roote/Desktop/election/contracts/PatientManagement.sol",
  "compiler": {
    "name": "solc",
    "version": "0.8.16+commit.07a7930e.Emscripten.clang"
  },
  "schemaVersion": "3.4.16",
  "updatedAt": "2024-04-03T11:02:38.821Z",
  "networkType": "ethereum",
  "devdoc": {
    "kind": "dev",
    "methods": {},
    "version": 1
  },
  "userdoc": {
    "kind": "user",
    "methods": {},
    "version": 1
  }
}