{
  "contractName": "PatientManagement",
  "abi": [
    {
      "inputs": [],
      "stateMutability": "nonpayable",
      "type": "constructor"
    },
    {
      "anonymous": false,
      "inputs": [
        {
          "indexed": false,
          "internalType": "uint256",
          "name": "count",
          "type": "uint256"
        }
      ],
      "name": "deathRateUpdated",
      "type": "event"
    },
    {
      "inputs": [
        {
          "internalType": "uint256",
          "name": "",
          "type": "uint256"
        }
      ],
      "name": "addresses",
      "outputs": [
        {
          "internalType": "address",
          "name": "",
          "type": "address"
        }
      ],
      "stateMutability": "view",
      "type": "function",
      "constant": true
    },
    {
      "inputs": [],
      "name": "deployDate",
      "outputs": [
        {
          "internalType": "uint256",
          "name": "",
          "type": "uint256"
        }
      ],
      "stateMutability": "view",
      "type": "function",
      "constant": true
    },
    {
      "inputs": [
        {
          "internalType": "string",
          "name": "",
          "type": "string"
        }
      ],
      "name": "districtCount",
      "outputs": [
        {
          "internalType": "uint256",
          "name": "",
          "type": "uint256"
        }
      ],
      "stateMutability": "view",
      "type": "function",
      "constant": true
    },
    {
      "inputs": [],
      "name": "districtIndex",
      "outputs": [
        {
          "internalType": "uint256",
          "name": "",
          "type": "uint256"
        }
      ],
      "stateMutability": "view",
      "type": "function",
      "constant": true
    },
    {
      "inputs": [
        {
          "internalType": "uint256",
          "name": "",
          "type": "uint256"
        }
      ],
      "name": "districts",
      "outputs": [
        {
          "internalType": "string",
          "name": "",
          "type": "string"
        }
      ],
      "stateMutability": "view",
      "type": "function",
      "constant": true
    },
    {
      "inputs": [
        {
          "internalType": "address",
          "name": "",
          "type": "address"
        }
      ],
      "name": "user",
      "outputs": [
        {
          "internalType": "uint256",
          "name": "id",
          "type": "uint256"
        },
        {
          "internalType": "uint256",
          "name": "age",
          "type": "uint256"
        },
        {
          "internalType": "string",
          "name": "gender",
          "type": "string"
        },
        {
          "internalType": "enum PatientManagement.Status",
          "name": "vaccine_status",
          "type": "uint8"
        },
        {
          "internalType": "string",
          "name": "district",
          "type": "string"
        },
        {
          "internalType": "string",
          "name": "symptom_details",
          "type": "string"
        },
        {
          "internalType": "bool",
          "name": "is_dead",
          "type": "bool"
        },
        {
          "internalType": "bool",
          "name": "is_admin",
          "type": "bool"
        }
      ],
      "stateMutability": "view",
      "type": "function",
      "constant": true
    },
    {
      "inputs": [],
      "name": "userCount",
      "outputs": [
        {
          "internalType": "uint256",
          "name": "",
          "type": "uint256"
        }
      ],
      "stateMutability": "view",
      "type": "function",
      "constant": true
    },
    {
      "inputs": [
        {
          "internalType": "uint256",
          "name": "_age",
          "type": "uint256"
        },
        {
          "internalType": "string",
          "name": "_gender",
          "type": "string"
        },
        {
          "internalType": "enum PatientManagement.Status",
          "name": "_vaccine_status",
          "type": "uint8"
        },
        {
          "internalType": "string",
          "name": "_district",
          "type": "string"
        },
        {
          "internalType": "string",
          "name": "_symptom_details",
          "type": "string"
        },
        {
          "internalType": "bool",
          "name": "_is_dead",
          "type": "bool"
        }
      ],
      "name": "addUser",
      "outputs": [],
      "stateMutability": "nonpayable",
      "type": "function"
    },
    {
      "inputs": [],
      "name": "checkAdmin",
      "outputs": [
        {
          "internalType": "bool",
          "name": "",
          "type": "bool"
        }
      ],
      "stateMutability": "view",
      "type": "function",
      "constant": true
    },
    {
      "inputs": [],
      "name": "setAdmin",
      "outputs": [],
      "stateMutability": "nonpayable",
      "type": "function"
    },
    {
      "inputs": [
        {
          "internalType": "address",
          "name": "_address",
          "type": "address"
        },
        {
          "internalType": "enum PatientManagement.Status",
          "name": "_vaccine_status",
          "type": "uint8"
        },
        {
          "internalType": "bool",
          "name": "_is_dead",
          "type": "bool"
        }
      ],
      "name": "updateUser",
      "outputs": [],
      "stateMutability": "nonpayable",
      "type": "function"
    },
    {
      "inputs": [],
      "name": "getDeathRate",
      "outputs": [
        {
          "internalType": "uint256",
          "name": "",
          "type": "uint256"
        }
      ],
      "stateMutability": "view",
      "type": "function",
      "constant": true
    },
    {
      "inputs": [],
      "name": "getHighestPatient",
      "outputs": [
        {
          "internalType": "string",
          "name": "",
          "type": "string"
        }
      ],
      "stateMutability": "view",
      "type": "function",
      "constant": true
    },
    {
      "inputs": [],
      "name": "getDistricts",
      "outputs": [
        {
          "internalType": "string[]",
          "name": "",
          "type": "string[]"
        }
      ],
      "stateMutability": "view",
      "type": "function",
      "constant": true
    },
    {
      "inputs": [],
      "name": "getAllMedianAge",
      "outputs": [
        {
          "internalType": "uint256[]",
          "name": "",
          "type": "uint256[]"
        }
      ],
      "stateMutability": "view",
      "type": "function",
      "constant": true
    },
    {
      "inputs": [
        {
          "internalType": "string",
          "name": "district",
          "type": "string"
        }
      ],
      "name": "getMedianAge",
      "outputs": [
        {
          "internalType": "uint256",
          "name": "",
          "type": "uint256"
        }
      ],
      "stateMutability": "view",
      "type": "function",
      "constant": true
    },
    {
      "inputs": [],
      "name": "getCategoryPercentage",
      "outputs": [
        {
          "internalType": "uint256[]",
          "name": "",
          "type": "uint256[]"
        }
      ],
      "stateMutability": "view",
      "type": "function",
      "constant": true
    },
    {
      "inputs": [],
      "name": "getEligibleForCertificate",
      "outputs": [
        {
          "internalType": "bool",
          "name": "",
          "type": "bool"
        }
      ],
      "stateMutability": "view",
      "type": "function",
      "constant": true
    }
  ],
  "bytecode": "0x60806040523480156200001157600080fd5b5042600581905550600073525a60a28d163dd81cb39aa2b4e4d8189090e4ae90508060016000600454815260200190815260200160002060006101000a81548173ffffffffffffffffffffffffffffffffffffffff021916908373ffffffffffffffffffffffffffffffffffffffff16021790555060405180610100016040528060008152602001600581526020016040518060400160405280600481526020017f6d616c65000000000000000000000000000000000000000000000000000000008152508152602001600280811115620000f157620000f0620006f3565b5b81526020016040518060400160405280600581526020017f4468616b6100000000000000000000000000000000000000000000000000000081525081526020016040518060400160405280600681526020017f73646673646600000000000000000000000000000000000000000000000000008152508152602001600015158152602001600115158152506000808373ffffffffffffffffffffffffffffffffffffffff1673ffffffffffffffffffffffffffffffffffffffff16815260200190815260200160002060008201518160000155602082015181600101556040820151816002019081620001e591906200099c565b5060608201518160030160006101000a81548160ff02191690836002811115620002145762000213620006f3565b5b021790555060808201518160040190816200023091906200099c565b5060a08201518160050190816200024891906200099c565b5060c08201518160060160006101000a81548160ff02191690831515021790555060e08201518160060160016101000a81548160ff021916908315150217905550905050600160026040516200029e9062000ade565b9081526020016040518091039020819055506040518060400160405280600581526020017f4468616b610000000000000000000000000000000000000000000000000000008152506003600080815260200190815260200160002090816200030791906200099c565b506001600660008282546200031d919062000b24565b92505081905550620003346200033c60201b60201c565b505062000ca3565b60606000600567ffffffffffffffff8111156200035e576200035d6200072d565b5b6040519080825280602002602001820160405280156200038d5781602001602082028036833780820191505090505b50905060005b6004548111620006585760006001600083815260200190815260200160002060009054906101000a900473ffffffffffffffffffffffffffffffffffffffff169050600d6000808373ffffffffffffffffffffffffffffffffffffffff1673ffffffffffffffffffffffffffffffffffffffff1681526020019081526020016000206001015410156200045c5760018360018151811062000439576200043862000b5f565b5b602002602001018181516200044f919062000b24565b9150818152505062000641565b600d6000808373ffffffffffffffffffffffffffffffffffffffff1673ffffffffffffffffffffffffffffffffffffffff1681526020019081526020016000206001015410158015620004f0575060146000808373ffffffffffffffffffffffffffffffffffffffff1673ffffffffffffffffffffffffffffffffffffffff16815260200190815260200160002060010154105b1562000532576001836002815181106200050f576200050e62000b5f565b5b6020026020010181815162000525919062000b24565b9150818152505062000640565b60146000808373ffffffffffffffffffffffffffffffffffffffff1673ffffffffffffffffffffffffffffffffffffffff1681526020019081526020016000206001015410158015620005c6575060326000808373ffffffffffffffffffffffffffffffffffffffff1673ffffffffffffffffffffffffffffffffffffffff16815260200190815260200160002060010154105b156200060857600183600381518110620005e557620005e462000b5f565b5b60200260200101818151620005fb919062000b24565b915081815250506200063f565b60018360048151811062000621576200062062000b5f565b5b6020026020010181815162000637919062000b24565b915081815250505b5b5b5080806200064f9062000b8e565b91505062000393565b506000600190505b6005811015620006eb57606460016004546200067d919062000b24565b83838151811062000693576200069262000b5f565b5b6020026020010151620006a7919062000c0a565b620006b3919062000c42565b828281518110620006c957620006c862000b5f565b5b6020026020010181815250508080620006e29062000b8e565b91505062000660565b508091505090565b7f4e487b7100000000000000000000000000000000000000000000000000000000600052602160045260246000fd5b600081519050919050565b7f4e487b7100000000000000000000000000000000000000000000000000000000600052604160045260246000fd5b7f4e487b7100000000000000000000000000000000000000000000000000000000600052602260045260246000fd5b60006002820490506001821680620007a457607f821691505b602082108103620007ba57620007b96200075c565b5b50919050565b60008190508160005260206000209050919050565b60006020601f8301049050919050565b600082821b905092915050565b600060088302620008247fffffffffffffffffffffffffffffffffffffffffffffffffffffffffffffffff82620007e5565b620008308683620007e5565b95508019841693508086168417925050509392505050565b6000819050919050565b6000819050919050565b60006200087d62000877620008718462000848565b62000852565b62000848565b9050919050565b6000819050919050565b62000899836200085c565b620008b1620008a88262000884565b848454620007f2565b825550505050565b600090565b620008c8620008b9565b620008d58184846200088e565b505050565b5b81811015620008fd57620008f1600082620008be565b600181019050620008db565b5050565b601f8211156200094c576200091681620007c0565b6200092184620007d5565b8101602085101562000931578190505b620009496200094085620007d5565b830182620008da565b50505b505050565b600082821c905092915050565b6000620009716000198460080262000951565b1980831691505092915050565b60006200098c83836200095e565b9150826002028217905092915050565b620009a78262000722565b67ffffffffffffffff811115620009c357620009c26200072d565b5b620009cf82546200078b565b620009dc82828562000901565b600060209050601f83116001811462000a145760008415620009ff578287015190505b62000a0b85826200097e565b86555062000a7b565b601f19841662000a2486620007c0565b60005b8281101562000a4e5784890151825560018201915060208501945060208101905062000a27565b8683101562000a6e578489015162000a6a601f8916826200095e565b8355505b6001600288020188555050505b505050505050565b600081905092915050565b7f4468616b61000000000000000000000000000000000000000000000000000000600082015250565b600062000ac660058362000a83565b915062000ad38262000a8e565b600582019050919050565b600062000aeb8262000ab7565b9150819050919050565b7f4e487b7100000000000000000000000000000000000000000000000000000000600052601160045260246000fd5b600062000b318262000848565b915062000b3e8362000848565b925082820190508082111562000b595762000b5862000af5565b5b92915050565b7f4e487b7100000000000000000000000000000000000000000000000000000000600052603260045260246000fd5b600062000b9b8262000848565b91507fffffffffffffffffffffffffffffffffffffffffffffffffffffffffffffffff820362000bd05762000bcf62000af5565b5b600182019050919050565b7f4e487b7100000000000000000000000000000000000000000000000000000000600052601260045260246000fd5b600062000c178262000848565b915062000c248362000848565b92508262000c375762000c3662000bdb565b5b828204905092915050565b600062000c4f8262000848565b915062000c5c8362000848565b9250817fffffffffffffffffffffffffffffffffffffffffffffffffffffffffffffffff048311821515161562000c985762000c9762000af5565b5b828202905092915050565b6126598062000cb36000396000f3fe608060405234801561001057600080fd5b50600436106101165760003560e01c806381e7e20e116100a2578063b11fd4ab11610071578063b11fd4ab146102b6578063b708e8f3146102e6578063e0137eac14610304578063e77995e014610320578063edf26d9b1461035057610116565b806381e7e20e14610225578063a92563ed1461025c578063aaf073f81461027a578063ab1502261461029857610116565b80633aabc363116100e95780633aabc3631461017f5780634ae1f2d21461019d5780635695b254146101cd57806369668fe9146101eb5780636a3aa0551461020957610116565b806307973ccf1461011b5780632cae20961461013957806332e9a083146101435780633a7ebd4c14610161575b600080fd5b610123610380565b604051610130919061181f565b60405180910390f35b610141610386565b005b61014b6103e2565b6040516101589190611855565b60405180910390f35b61016961046e565b604051610176919061192e565b60405180910390f35b6101876107f1565b60405161019491906119e0565b60405180910390f35b6101b760048036038101906101b29190611b4b565b61093b565b6040516101c4919061181f565b60405180910390f35b6101d5610969565b6040516101e2919061181f565b60405180910390f35b6101f361096f565b604051610200919061181f565b60405180910390f35b610223600480360381019061021e9190611c11565b610975565b005b61023f600480360381019061023a9190611d50565b610c06565b604051610253989796959493929190611df4565b60405180910390f35b610264610e0d565b6040516102719190611f93565b60405180910390f35b610282610f50565b60405161028f919061181f565b60405180910390f35b6102a0611050565b6040516102ad9190611855565b60405180910390f35b6102d060048036038101906102cb9190611b4b565b6110a6565b6040516102dd919061181f565b60405180910390f35b6102ee61147c565b6040516102fb919061192e565b60405180910390f35b61031e60048036038101906103199190611fb5565b6115d3565b005b61033a60048036038101906103359190612008565b611733565b60405161034791906119e0565b60405180910390f35b61036a60048036038101906103659190612008565b6117d3565b6040516103779190612044565b60405180910390f35b60045481565b60016000803373ffffffffffffffffffffffffffffffffffffffff1673ffffffffffffffffffffffffffffffffffffffff16815260200190815260200160002060060160016101000a81548160ff021916908315150217905550565b60006002808111156103f7576103f6611d7d565b5b6000803373ffffffffffffffffffffffffffffffffffffffff1673ffffffffffffffffffffffffffffffffffffffff16815260200190815260200160002060030160009054906101000a900460ff16600281111561045857610457611d7d565b5b03610466576001905061046b565b600090505b90565b60606000600567ffffffffffffffff81111561048d5761048c611a20565b5b6040519080825280602002602001820160405280156104bb5781602001602082028036833780820191505090505b50905060005b60045481116107665760006001600083815260200190815260200160002060009054906101000a900473ffffffffffffffffffffffffffffffffffffffff169050600d6000808373ffffffffffffffffffffffffffffffffffffffff1673ffffffffffffffffffffffffffffffffffffffff168152602001908152602001600020600101541015610582576001836001815181106105625761056161205f565b5b6020026020010181815161057691906120bd565b91508181525050610752565b600d6000808373ffffffffffffffffffffffffffffffffffffffff1673ffffffffffffffffffffffffffffffffffffffff1681526020019081526020016000206001015410158015610615575060146000808373ffffffffffffffffffffffffffffffffffffffff1673ffffffffffffffffffffffffffffffffffffffff16815260200190815260200160002060010154105b15610650576001836002815181106106305761062f61205f565b5b6020026020010181815161064491906120bd565b91508181525050610751565b60146000808373ffffffffffffffffffffffffffffffffffffffff1673ffffffffffffffffffffffffffffffffffffffff16815260200190815260200160002060010154101580156106e3575060326000808373ffffffffffffffffffffffffffffffffffffffff1673ffffffffffffffffffffffffffffffffffffffff16815260200190815260200160002060010154105b1561071e576001836003815181106106fe576106fd61205f565b5b6020026020010181815161071291906120bd565b91508181525050610750565b6001836004815181106107345761073361205f565b5b6020026020010181815161074891906120bd565b915081815250505b5b5b50808061075e906120f1565b9150506104c1565b506000600190505b60058110156107e9576064600160045461078891906120bd565b83838151811061079b5761079a61205f565b5b60200260200101516107ad9190612168565b6107b79190612199565b8282815181106107ca576107c961205f565b5b60200260200101818152505080806107e1906120f1565b91505061076e565b508091505090565b606060008060405180602001604052806000815250905060005b600654811015610932578260026003600084815260200190815260200160002060405161083891906122f6565b908152602001604051809103902054111561091f5760026003600083815260200190815260200160002060405161086f91906122f6565b908152602001604051809103902054925060036000828152602001908152602001600020805461089e90612222565b80601f01602080910402602001604051908101604052809291908181526020018280546108ca90612222565b80156109175780601f106108ec57610100808354040283529160200191610917565b820191906000526020600020905b8154815290600101906020018083116108fa57829003601f168201915b505050505091505b808061092a906120f1565b91505061080b565b50809250505090565b6002818051602081018201805184825260208301602085012081835280955050505050506000915090505481565b60065481565b60055481565b60046000815480929190610988906120f1565b91905055503360016000600454815260200190815260200160002060006101000a81548173ffffffffffffffffffffffffffffffffffffffff021916908373ffffffffffffffffffffffffffffffffffffffff1602179055506040518061010001604052806004548152602001878152602001868152602001856002811115610a1457610a13611d7d565b5b81526020018481526020018381526020018215158152602001600015158152506000803373ffffffffffffffffffffffffffffffffffffffff1673ffffffffffffffffffffffffffffffffffffffff16815260200190815260200160002060008201518160000155602082015181600101556040820151816002019081610a9b91906124a4565b5060608201518160030160006101000a81548160ff02191690836002811115610ac757610ac6611d7d565b5b02179055506080820151816004019081610ae191906124a4565b5060a0820151816005019081610af791906124a4565b5060c08201518160060160006101000a81548160ff02191690831515021790555060e08201518160060160016101000a81548160ff0219169083151502179055509050506000600284604051610b4d91906125a7565b90815260200160405180910390205403610bc7576001600284604051610b7391906125a7565b908152602001604051809103902081905550826003600060065481526020019081526020016000209081610ba791906124a4565b50600160066000828254610bbb91906120bd565b92505081905550610bfe565b6001600284604051610bd991906125a7565b90815260200160405180910390206000828254610bf691906120bd565b925050819055505b505050505050565b6000602052806000526040600020600091509050806000015490806001015490806002018054610c3590612222565b80601f0160208091040260200160405190810160405280929190818152602001828054610c6190612222565b8015610cae5780601f10610c8357610100808354040283529160200191610cae565b820191906000526020600020905b815481529060010190602001808311610c9157829003601f168201915b5050505050908060030160009054906101000a900460ff1690806004018054610cd690612222565b80601f0160208091040260200160405190810160405280929190818152602001828054610d0290612222565b8015610d4f5780601f10610d2457610100808354040283529160200191610d4f565b820191906000526020600020905b815481529060010190602001808311610d3257829003601f168201915b505050505090806005018054610d6490612222565b80601f0160208091040260200160405190810160405280929190818152602001828054610d9090612222565b8015610ddd5780601f10610db257610100808354040283529160200191610ddd565b820191906000526020600020905b815481529060010190602001808311610dc057829003601f168201915b5050505050908060060160009054906101000a900460ff16908060060160019054906101000a900460ff16905088565b606060006001600654610e2091906120bd565b67ffffffffffffffff811115610e3957610e38611a20565b5b604051908082528060200260200182016040528015610e6c57816020015b6060815260200190600190039081610e575790505b50905060005b6006548111610f4857600360008281526020019081526020016000208054610e9990612222565b80601f0160208091040260200160405190810160405280929190818152602001828054610ec590612222565b8015610f125780601f10610ee757610100808354040283529160200191610f12565b820191906000526020600020905b815481529060010190602001808311610ef557829003601f168201915b5050505050828281518110610f2a57610f2961205f565b5b60200260200101819052508080610f40906120f1565b915050610e72565b508091505090565b6000806000905060005b60045481116110135760006001600083815260200190815260200160002060009054906101000a900473ffffffffffffffffffffffffffffffffffffffff1690506000808273ffffffffffffffffffffffffffffffffffffffff1673ffffffffffffffffffffffffffffffffffffffff16815260200190815260200160002060060160009054906101000a900460ff1615610fff57600183610ffc91906120bd565b92505b50808061100b906120f1565b915050610f5a565b506001620151806005544261102891906125be565b6110329190612168565b61103c91906120bd565b816110479190612168565b90508091505090565b60008060003373ffffffffffffffffffffffffffffffffffffffff1673ffffffffffffffffffffffffffffffffffffffff16815260200190815260200160002060060160019054906101000a900460ff16905090565b6000806002836040516110b991906125a7565b90815260200160405180910390205467ffffffffffffffff8111156110e1576110e0611a20565b5b60405190808252806020026020018201604052801561110f5781602001602082028036833780820191505090505b5090506000805b600454811161126f5760006001600083815260200190815260200160002060009054906101000a900473ffffffffffffffffffffffffffffffffffffffff1690508560405160200161116891906125a7565b604051602081830303815290604052805190602001206000808373ffffffffffffffffffffffffffffffffffffffff1673ffffffffffffffffffffffffffffffffffffffff1681526020019081526020016000206004016040516020016111cf91906122f6565b604051602081830303815290604052805190602001200361125b576000808273ffffffffffffffffffffffffffffffffffffffff1673ffffffffffffffffffffffffffffffffffffffff1681526020019081526020016000206001015484848151811061123f5761123e61205f565b5b60200260200101818152505060018361125891906120bd565b92505b508080611267906120f1565b915050611116565b5060005b60018261128091906125be565b8110156113a55760005b6001828461129891906125be565b6112a291906125be565b81101561139157836001826112b791906120bd565b815181106112c8576112c761205f565b5b60200260200101518482815181106112e3576112e261205f565b5b6020026020010151111561137e57836001826112ff91906120bd565b815181106113105761130f61205f565b5b602002602001015184828151811061132b5761132a61205f565b5b60200260200101518583815181106113465761134561205f565b5b602002602001018660018561135b91906120bd565b8151811061136c5761136b61205f565b5b60200260200101828152508281525050505b8080611389906120f1565b91505061128a565b50808061139d906120f1565b915050611273565b5060006002826113b591906125f2565b03611433576002826002836113ca9190612168565b815181106113db576113da61205f565b5b60200260200101518360016002856113f39190612168565b6113fd91906125be565b8151811061140e5761140d61205f565b5b602002602001015161142091906120bd565b61142a9190612168565b92505050611477565b816001600260018461144591906120bd565b61144f9190612168565b61145991906125be565b8151811061146a5761146961205f565b5b6020026020010151925050505b919050565b60606000600160065461148f91906120bd565b67ffffffffffffffff8111156114a8576114a7611a20565b5b6040519080825280602002602001820160405280156114d65781602001602082028036833780820191505090505b5090506000600190505b60065481116115cb57611599600360006001846114fd91906125be565b8152602001908152602001600020805461151690612222565b80601f016020809104026020016040519081016040528092919081815260200182805461154290612222565b801561158f5780601f106115645761010080835404028352916020019161158f565b820191906000526020600020905b81548152906001019060200180831161157257829003601f168201915b50505050506110a6565b8282815181106115ac576115ab61205f565b5b60200260200101818152505080806115c3906120f1565b9150506114e0565b508091505090565b6000803373ffffffffffffffffffffffffffffffffffffffff1673ffffffffffffffffffffffffffffffffffffffff16815260200190815260200160002060060160019054906101000a900460ff16156116ea57816000808573ffffffffffffffffffffffffffffffffffffffff1673ffffffffffffffffffffffffffffffffffffffff16815260200190815260200160002060030160006101000a81548160ff0219169083600281111561168b5761168a611d7d565b5b0217905550806000808573ffffffffffffffffffffffffffffffffffffffff1673ffffffffffffffffffffffffffffffffffffffff16815260200190815260200160002060060160006101000a81548160ff0219169083151502179055505b60006116f4610f50565b90507f33d8270f6d0deceb5b279dad8531922bf451221f657cd38bc46baa8a19b6425d81604051611725919061181f565b60405180910390a150505050565b6003602052806000526040600020600091509050805461175290612222565b80601f016020809104026020016040519081016040528092919081815260200182805461177e90612222565b80156117cb5780601f106117a0576101008083540402835291602001916117cb565b820191906000526020600020905b8154815290600101906020018083116117ae57829003601f168201915b505050505081565b60016020528060005260406000206000915054906101000a900473ffffffffffffffffffffffffffffffffffffffff1681565b6000819050919050565b61181981611806565b82525050565b60006020820190506118346000830184611810565b92915050565b60008115159050919050565b61184f8161183a565b82525050565b600060208201905061186a6000830184611846565b92915050565b600081519050919050565b600082825260208201905092915050565b6000819050602082019050919050565b6118a581611806565b82525050565b60006118b7838361189c565b60208301905092915050565b6000602082019050919050565b60006118db82611870565b6118e5818561187b565b93506118f08361188c565b8060005b8381101561192157815161190888826118ab565b9750611913836118c3565b9250506001810190506118f4565b5085935050505092915050565b6000602082019050818103600083015261194881846118d0565b905092915050565b600081519050919050565b600082825260208201905092915050565b60005b8381101561198a57808201518184015260208101905061196f565b60008484015250505050565b6000601f19601f8301169050919050565b60006119b282611950565b6119bc818561195b565b93506119cc81856020860161196c565b6119d581611996565b840191505092915050565b600060208201905081810360008301526119fa81846119a7565b905092915050565b6000604051905090565b600080fd5b600080fd5b600080fd5b600080fd5b7f4e487b7100000000000000000000000000000000000000000000000000000000600052604160045260246000fd5b611a5882611996565b810181811067ffffffffffffffff82111715611a7757611a76611a20565b5b80604052505050565b6000611a8a611a02565b9050611a968282611a4f565b919050565b600067ffffffffffffffff821115611ab657611ab5611a20565b5b611abf82611996565b9050602081019050919050565b82818337600083830152505050565b6000611aee611ae984611a9b565b611a80565b905082815260208101848484011115611b0a57611b09611a1b565b5b611b15848285611acc565b509392505050565b600082601f830112611b3257611b31611a16565b5b8135611b42848260208601611adb565b91505092915050565b600060208284031215611b6157611b60611a0c565b5b600082013567ffffffffffffffff811115611b7f57611b7e611a11565b5b611b8b84828501611b1d565b91505092915050565b611b9d81611806565b8114611ba857600080fd5b50565b600081359050611bba81611b94565b92915050565b60038110611bcd57600080fd5b50565b600081359050611bdf81611bc0565b92915050565b611bee8161183a565b8114611bf957600080fd5b50565b600081359050611c0b81611be5565b92915050565b60008060008060008060c08789031215611c2e57611c2d611a0c565b5b6000611c3c89828a01611bab565b965050602087013567ffffffffffffffff811115611c5d57611c5c611a11565b5b611c6989828a01611b1d565b9550506040611c7a89828a01611bd0565b945050606087013567ffffffffffffffff811115611c9b57611c9a611a11565b5b611ca789828a01611b1d565b935050608087013567ffffffffffffffff811115611cc857611cc7611a11565b5b611cd489828a01611b1d565b92505060a0611ce589828a01611bfc565b9150509295509295509295565b600073ffffffffffffffffffffffffffffffffffffffff82169050919050565b6000611d1d82611cf2565b9050919050565b611d2d81611d12565b8114611d3857600080fd5b50565b600081359050611d4a81611d24565b92915050565b600060208284031215611d6657611d65611a0c565b5b6000611d7484828501611d3b565b91505092915050565b7f4e487b7100000000000000000000000000000000000000000000000000000000600052602160045260246000fd5b60038110611dbd57611dbc611d7d565b5b50565b6000819050611dce82611dac565b919050565b6000611dde82611dc0565b9050919050565b611dee81611dd3565b82525050565b600061010082019050611e0a600083018b611810565b611e17602083018a611810565b8181036040830152611e2981896119a7565b9050611e386060830188611de5565b8181036080830152611e4a81876119a7565b905081810360a0830152611e5e81866119a7565b9050611e6d60c0830185611846565b611e7a60e0830184611846565b9998505050505050505050565b600081519050919050565b600082825260208201905092915050565b6000819050602082019050919050565b600082825260208201905092915050565b6000611ecf82611950565b611ed98185611eb3565b9350611ee981856020860161196c565b611ef281611996565b840191505092915050565b6000611f098383611ec4565b905092915050565b6000602082019050919050565b6000611f2982611e87565b611f338185611e92565b935083602082028501611f4585611ea3565b8060005b85811015611f815784840389528151611f628582611efd565b9450611f6d83611f11565b925060208a01995050600181019050611f49565b50829750879550505050505092915050565b60006020820190508181036000830152611fad8184611f1e565b905092915050565b600080600060608486031215611fce57611fcd611a0c565b5b6000611fdc86828701611d3b565b9350506020611fed86828701611bd0565b9250506040611ffe86828701611bfc565b9150509250925092565b60006020828403121561201e5761201d611a0c565b5b600061202c84828501611bab565b91505092915050565b61203e81611d12565b82525050565b60006020820190506120596000830184612035565b92915050565b7f4e487b7100000000000000000000000000000000000000000000000000000000600052603260045260246000fd5b7f4e487b7100000000000000000000000000000000000000000000000000000000600052601160045260246000fd5b60006120c882611806565b91506120d383611806565b92508282019050808211156120eb576120ea61208e565b5b92915050565b60006120fc82611806565b91507fffffffffffffffffffffffffffffffffffffffffffffffffffffffffffffffff820361212e5761212d61208e565b5b600182019050919050565b7f4e487b7100000000000000000000000000000000000000000000000000000000600052601260045260246000fd5b600061217382611806565b915061217e83611806565b92508261218e5761218d612139565b5b828204905092915050565b60006121a482611806565b91506121af83611806565b9250817fffffffffffffffffffffffffffffffffffffffffffffffffffffffffffffffff04831182151516156121e8576121e761208e565b5b828202905092915050565b7f4e487b7100000000000000000000000000000000000000000000000000000000600052602260045260246000fd5b6000600282049050600182168061223a57607f821691505b60208210810361224d5761224c6121f3565b5b50919050565b600081905092915050565b60008190508160005260206000209050919050565b6000815461228081612222565b61228a8186612253565b945060018216600081146122a557600181146122ba576122ed565b60ff19831686528115158202860193506122ed565b6122c38561225e565b60005b838110156122e5578154818901526001820191506020810190506122c6565b838801955050505b50505092915050565b60006123028284612273565b915081905092915050565b60006020601f8301049050919050565b600082821b905092915050565b60006008830261235a7fffffffffffffffffffffffffffffffffffffffffffffffffffffffffffffffff8261231d565b612364868361231d565b95508019841693508086168417925050509392505050565b6000819050919050565b60006123a161239c61239784611806565b61237c565b611806565b9050919050565b6000819050919050565b6123bb83612386565b6123cf6123c7826123a8565b84845461232a565b825550505050565b600090565b6123e46123d7565b6123ef8184846123b2565b505050565b5b81811015612413576124086000826123dc565b6001810190506123f5565b5050565b601f821115612458576124298161225e565b6124328461230d565b81016020851015612441578190505b61245561244d8561230d565b8301826123f4565b50505b505050565b600082821c905092915050565b600061247b6000198460080261245d565b1980831691505092915050565b6000612494838361246a565b9150826002028217905092915050565b6124ad82611950565b67ffffffffffffffff8111156124c6576124c5611a20565b5b6124d08254612222565b6124db828285612417565b600060209050601f83116001811461250e57600084156124fc578287015190505b6125068582612488565b86555061256e565b601f19841661251c8661225e565b60005b828110156125445784890151825560018201915060208501945060208101905061251f565b86831015612561578489015161255d601f89168261246a565b8355505b6001600288020188555050505b505050505050565b600061258182611950565b61258b8185612253565b935061259b81856020860161196c565b80840191505092915050565b60006125b38284612576565b915081905092915050565b60006125c982611806565b91506125d483611806565b92508282039050818111156125ec576125eb61208e565b5b92915050565b60006125fd82611806565b915061260883611806565b92508261261857612617612139565b5b82820690509291505056fea2646970667358221220346bce6f118dd7cd3d07ff5cee951d357c9629493b2682a14ef32d012474ac5864736f6c63430008100033",
  "immutableReferences": {},
  "source": "// SPDX-License-Identifier: GPL-3.0\npragma solidity >=0.7.0 <0.9.0;\n\ncontract PatientManagement {\n\n    enum Status {\n        not_vaccinated,\n        one_dose,\n        two_dose\n    }\n\n    struct User {\n        uint id;\n        uint age;\n        string gender;\n        Status vaccine_status;\n        string district;\n        string symptom_details;\n        bool is_dead;\n        bool is_admin;\n    }\n\n\n    mapping(address => User) public user;\n\n    mapping(uint => address) public addresses;\n\n    mapping(string => uint) public districtCount;\n\n    mapping(uint => string) public districts;\n\n    uint public userCount;\n    uint public deployDate;\n    uint public districtIndex;\n\n    event deathRateUpdated(uint count);\n\n    constructor() {\n        deployDate = block.timestamp;\n        address res = 0x525a60a28d163Dd81Cb39aA2B4E4d8189090e4ae;\n        addresses[userCount] = res;\n        user[res] = User(0,5,\"male\",Status.two_dose,\"Dhaka\",\"sdfsdf\",false,true);\n        districtCount[\"Dhaka\"] = 1;\n        districts[0] = \"Dhaka\";\n        districtIndex += 1;\n        getCategoryPercentage();\n    }\n\n    function addUser(\n        uint _age,\n        string memory _gender,\n        Status _vaccine_status,\n        string memory _district,\n        string memory _symptom_details,\n        bool _is_dead\n    ) public {\n        userCount++;\n        addresses[userCount] = msg.sender;\n        user[msg.sender] = User(\n            userCount,\n            _age,\n            _gender,\n            _vaccine_status,\n            _district,\n            _symptom_details,\n            _is_dead,\n            false\n        );\n        if(districtCount[_district] == 0){\n            districtCount[_district] = 1;\n            districts[districtIndex] = _district;\n            districtIndex += 1;\n        }else{\n            districtCount[_district] += 1;\n        }\n    }\n\n    function checkAdmin() public view returns (bool){\n        return user[msg.sender].is_admin;\n    }\n\n    function setAdmin() public {\n        user[msg.sender].is_admin = true;\n    }\n\n    function updateUser(address _address, Status _vaccine_status, bool _is_dead) public {\n        if(user[msg.sender].is_admin){\n            user[_address].vaccine_status = _vaccine_status;\n            user[_address].is_dead = _is_dead;\n        }\n        uint count = getDeathRate();\n        emit deathRateUpdated(count);\n    }\n\n    function getDeathRate() public view returns(uint) {\n        uint count = 0;\n        for (uint i = 0; i <= userCount; i++) {\n            address res = addresses[i];\n            if(user[res].is_dead){\n                count += 1;\n            }\n        }\n        count = (count/(((block.timestamp-deployDate) / 1 days)+1));\n        return count;\n    }\n\n    function getHighestPatient() public view returns(string memory){\n        uint max = 0;\n        string memory district = \"\";\n        for (uint i = 0; i < districtIndex; i++) {\n            if(districtCount[districts[i]] > max){\n                max = districtCount[districts[i]];\n                district = districts[i];\n            }\n        }\n        return district;\n    }\n    \n    function getDistricts() public view returns(string[] memory){\n        string[] memory districtList = new string[](districtIndex+1);\n        for (uint i = 0; i <= districtIndex; i++) {\n            districtList[i] = districts[i];\n        }\n        return districtList;\n    }\n\n    function getAllMedianAge() public view returns(uint[] memory){\n        uint[] memory medianAges = new uint[](districtIndex+1);\n        for (uint i = 1; i <= districtIndex; i++) {\n            medianAges[i] = getMedianAge(districts[i-1]);\n        }\n        return medianAges;\n    }\n\n    function getMedianAge(string memory district) public view returns(uint){\n        uint[] memory patients = new uint[](districtCount[district]);\n        uint count = 0;\n        for (uint i = 0; i <= userCount; i++) {\n            address res = addresses[i];\n            if(keccak256(abi.encodePacked(user[res].district)) == keccak256(abi.encodePacked(district))){\n                patients[count] = user[res].age;\n                count += 1;\n            }\n        }\n        for (uint i = 0; i < count - 1; i++) {\n            for (uint j = 0; j < count - i - 1; j++) {\n                if (patients[j] > patients[j + 1]) {\n                    (patients[j], patients[j + 1]) = (patients[j + 1], patients[j]);\n                }\n            }\n        }\n\n        if(count % 2 == 0){\n            return (patients[(count/2)-1] + patients[(count/2)])/2;\n        }else{\n            return patients[((count+1)/2)-1];\n        }\n    }\n\n    function getCategoryPercentage() public view returns(uint[] memory){\n        uint[] memory category = new uint[](5);\n        for (uint i = 0; i <= userCount; i++) {\n            address res = addresses[i];\n            if(user[res].age < 13){\n                category[1] += 1;\n            }else if(user[res].age >= 13 && user[res].age < 20){\n                category[2] += 1;\n            }else if(user[res].age >= 20 && user[res].age < 50){\n                category[3] += 1;\n            }else{\n                category[4] += 1;\n            }\n        }\n        \n        for (uint i = 1; i < 5; i++) {\n            category[i] = (category[i]/(userCount+1))*100;\n        }\n        return category;\n    }\n\n    function getEligibleForCertificate() public view returns(bool){\n        if(user[msg.sender].vaccine_status == Status.two_dose){\n            return true;\n        }else{\n            return false;\n        }\n    }\n\n\n}\n",
  "sourcePath": "/home/roote/Desktop/election/contracts/PatientManagement.sol",
  "compiler": {
    "name": "solc",
    "version": "0.8.16+commit.07a7930e.Emscripten.clang"
  },
  "schemaVersion": "3.4.16",
  "updatedAt": "2024-04-15T12:44:36.229Z",
  "networkType": "ethereum",
  "devdoc": {
    "kind": "dev",
    "methods": {},
    "version": 1
  },
  "userdoc": {
    "kind": "user",
    "methods": {},
    "version": 1
  }
}